:020000040800F2
:100000000000012035B70008B10E0008B50E000849
:10001000C90E0008CB0E0008CD0E0008000000003D
:10002000000000000000000000000000CF0E0008EB
:10003000D10E000800000000D30E0008D50E000805
:1000400085B7000885B7000885B7000885B70008A0
:1000500085B7000885B7000885B7000885B7000890
:1000600085B7000885B7000885B7000885B7000880
:1000700085B7000885B7000885B7000885B7000870
:1000800085B7000885B70008DD0E000800000000F5
:1000900000000000000000000000000085B700081C
:1000A00085B7000885B7000885B7000885B7000840
:1000B00085B7000885B7000885B7000885B7000830
:1000C00085B7000885B7000885B7000885B7000820
:1000D00085B7000885B7000885B700080000000054
:1000E00085B7000885B7000885B700080000000044
:1000F00000000000000000000000000085B70008BC
:1001000000000000ED0E0008FD0E000885B7000895
:1001100000000000000000000000000000000000DF
:100120000D0F000885B7000885B7000885B70008DF
:1001300085B700080000000000000000000000007B
:100140000000000000000000000000001D0F00087B
:1001500085B7000885B7000885B7000885B700088F
:1001600085B7000885B70008000000000000000007
:10017000000000000000000000000000000000007F
:100180000000000085B7000800000000000000002B
:0401900085B7000827
:1001A00001F0FF01102A2BDB10F0070F08D010F828
:1001B000013B013A8B422DD010F0070F42B3F6D12C
:1001C000F0B441EA012141EA014122F007047FF045
:1001D00000070023F0E80256083C85EA010586EA9C
:1001E000010685FA47F5A3FA87F586FA47F6A5FAD8
:1001F00087F68EB9EED1F0BC01F0FF0102F00702E4
:1002000032B110F8013B013A83EA010313B1F8D18E
:100210000020704701387047002D06BF354603386F
:10022000073815F0010F07D1013015F4807F02BFA8
:10023000013015F4C03F0130F0BC0138704700BFF9
:10024000034613F8012B002AFBD1181A0138704716
:1002500081F0004102E000BF83F0004330B54FEA77
:1002600041044FEA430594EA050F08BF90EA020FE4
:100270001FBF54EA000C55EA020C7FEA645C7FEA77
:10028000655C00F0E2804FEA5454D4EB5555B8BF9A
:100290006D420CDD2C4480EA020281EA030382EA0B
:1002A000000083EA010180EA020281EA0303362D9D
:1002B00088BF30BD11F0004F4FEA01314FF4801C70
:1002C0004CEA113102D0404261EB410113F0004F82
:1002D0004FEA03334CEA133302D0524263EB430339
:1002E00094EA050F00F0A780A4F10104D5F1200ED7
:1002F0000DDB02FA0EFC22FA05F2801841F1000132
:1003000003FA0EF2801843FA05F359410EE0A5F105
:1003100020050EF1200E012A03FA0EFC28BF4CF036
:10032000020C43FA05F3C01851EBE37101F00045EC
:1003300007D54FF0000EDCF1000C7EEB00006EEBF9
:100340000101B1F5801F1BD3B1F5001F0CD3490883
:100350005FEA30004FEA3C0C04F101044FEA4452DA
:1003600012F5800F80F09A80BCF1004F08BF5FEA61
:10037000500C50F1000041EB045141EA050130BD41
:100380005FEA4C0C404141EB0101013C28BFB1F553
:10039000801FE9D291F0000F04BF01460020B1FA9E
:1003A00081F308BF2033A3F10B03B3F120020CDA71
:1003B0000C3208DD02F1140CC2F10C0201FA0CF04F
:1003C00021FA02F10CE002F11402D8BFC2F1200CB4
:1003D00001FA02F120FA0CFCDCBF41EA0C0190406A
:1003E000E41AA2BF01EB0451294330BD6FEA0404B3
:1003F0001F3C1CDA0C340EDC04F11404C4F120029E
:1004000020FA04F001FA02F340EA030021FA04F3AF
:1004100045EA030130BDC4F10C04C4F1200220FA06
:1004200002F001FA04F340EA0300294630BD21FA44
:1004300004F0294630BD94F0000F83F4801306BF0A
:1004400081F480110134013D4EE77FEA645C18BFFE
:100450007FEA655C29D094EA050F08BF90EA020F95
:1004600005D054EA000C04BF1946104630BD91EA8D
:10047000030F1EBF0021002030BD5FEA545C05D190
:100480004000494128BF41F0004130BD14F58004CF
:100490003CBF01F5801130BD01F0004545F0FE4143
:1004A00041F470014FF0000030BD7FEA645C1ABF78
:1004B000194610467FEA655C1CBF0B46024650EAAF
:1004C000013406BF52EA033591EA030F41F40021DB
:1004D00030BD00BF90F0000F04BF0021704730B561
:1004E0004FF4806404F132044FF000054FF0000136
:1004F00050E700BF90F0000F04BF0021704730B5F7
:100500004FF4806404F1320410F0004548BF4042CB
:100510004FF000013EE700BF42004FEAE2014FEA20
:1005200031014FEA02701FBF12F07F4393F07F4FFB
:1005300081F06051704732F07F4208BF704793F0FE
:100540007F4F04BF41F40021704730B54FF4607411
:1005500001F0004521F000411CE700BF50EA010214
:1005600008BF704730B54FF000050AE050EA0102BD
:1005700008BF704730B511F0004502D5404261EB2D
:1005800041014FF4806404F132045FEA915C3FF46E
:10059000D8AE4FF003025FEADC0C18BF03325FEA0B
:1005A000DC0C18BF033202EBDC02C2F1200300FABC
:1005B00003FC20FA02F001FA03FE40EA0E0021FAE1
:1005C00002F11444BDE600BF70B54FF0FF0C4CF4CF
:1005D000E06C1CEA11541DBF1CEA135594EA0C0F81
:1005E00095EA0C0F00F0DEF82C4481EA030621EABC
:1005F0004C5123EA4C5350EA013518BF52EA0335F7
:1006000041F4801143F4801338D0A0FB02CE4FF0A8
:100610000005E1FB02E506F00042E0FB03E54FF0D8
:100620000006E1FB03569CF0000F18BF4EF0010ED0
:10063000A4F1FF04B6F5007F64F5407404D25FEACC
:100640004E0E6D4146EB060642EAC62141EA55517F
:100650004FEAC52040EA5E504FEACE2EB4F1FD0CC1
:1006600088BFBCF5E06F1ED8BEF1004F08BF5FEA3F
:10067000500E50F1000041EB045170BD06F00046F1
:1006800046EA010140EA020081EA0301B4EB5C049E
:10069000C2BFD4EB0C0541EA045170BD41F4801196
:1006A0004FF0000E013C00F3AB8014F1360FDEBFBB
:1006B000002001F0004170BDC4F10004203C35DA97
:1006C0000C341BDC04F11404C4F1200500FA05F31A
:1006D00020FA04F001FA05F240EA020001F00042BB
:1006E00021F0004110EBD37021FA04F642EB060131
:1006F0005EEA430E08BF20EAD37070BDC4F10C045B
:10070000C4F1200500FA04F320FA05F001FA04F21E
:1007100040EA020001F0004110EBD37041F100010A
:100720005EEA430E08BF20EAD37070BDC4F1200515
:1007300000FA05F24EEA020E20FA04F301FA05F27D
:1007400043EA020321FA04F001F0004121FA04F225
:1007500020EA020000EBD3705EEA430E08BF20EAF5
:10076000D37070BD94F0000F0FD101F0004640002F
:1007700041EB010111F4801F08BF013CF7D041EAB1
:10078000060195F0000F18BF704703F000465200B5
:1007900043EB030313F4801F08BF013DF7D043EA86
:1007A0000603704794EA0C0F0CEA135518BF95EA3C
:1007B0000C0F0CD050EA410618BF52EA4306D1D1C3
:1007C00081EA030101F000414FF0000070BD50EAE2
:1007D000410606BF1046194652EA430619D094EA6C
:1007E0000C0F02D150EA013613D195EA0C0F05D156
:1007F00052EA03361CBF104619460AD181EA0301AA
:1008000001F0004141F0FE4141F470014FF0000061
:1008100070BD41F0FE4141F4780170BD70B54FF0FC
:10082000FF0C4CF4E06C1CEA11541DBF1CEA13557C
:1008300094EA0C0F95EA0C0F00F0A7F8A4EB05045E
:1008400081EA030E52EA03354FEA013100F0888055
:100850004FEA03334FF0805545EA131343EA12631E
:100860004FEA022245EA111545EA10654FEA0026D3
:100870000EF000419D4208BF964244F1FD0404F58C
:10088000407402D25B084FEA3202B61A65EB0305E8
:100890005B084FEA32024FF480104FF4002CB6EBA5
:1008A000020E75EB030E22BFB61A754640EA0C0025
:1008B0005B084FEA3202B6EB020E75EB030E22BF65
:1008C000B61A754640EA5C005B084FEA3202B6EBA6
:1008D000020E75EB030E22BFB61A754640EA9C0065
:1008E0005B084FEA3202B6EB020E75EB030E22BF35
:1008F000B61A754640EADC0055EA060E18D04FEAF3
:10090000051545EA16754FEA06164FEAC30343EA92
:1009100052734FEAC2025FEA1C1CC0D111F4801F5F
:100920000BD141EA00014FF000004FF0004CB6E758
:1009300011F4801F04BF01430020B4F1FD0C88BFF7
:10094000BCF5E06F3FF6AFAEB5EB030C04BFB6EB02
:10095000020C5FEA500C50F1000041EB045170BDF5
:100960000EF0004E4EEA113114EB5C04C2BFD4EB22
:100970000C0541EA045170BD41F480114FF0000EA6
:10098000013C90E645EA060E8DE60CEA135594EA22
:100990000C0F08BF95EA0C0F3FF43BAF94EA0C0F25
:1009A0000AD150EA01347FF434AF95EA0C0F7FF49A
:1009B00025AF104619462CE795EA0C0F06D152EAEE
:1009C00003353FF4FDAE1046194622E750EA4106D2
:1009D00018BF52EA43067FF4C5AE50EA41047FF4E3
:1009E0000DAF52EA43057FF4EBAE12E74FF0FF3C48
:1009F00006E000BF4FF0010C02E000BF4FF0010C19
:100A00004DF804CD4FEA410C7FEA6C5C4FEA430C91
:100A100018BF7FEA6C5C1BD001B050EA410C0CBFE0
:100A200052EA430C91EA030F02BF90EA020F002042
:100A3000704710F1000F91EA030F58BF994208BFA9
:100A400090422CBFD8176FEAE37040F00100704766
:100A50004FEA410C7FEA6C5C02D150EA013C07D1BD
:100A60004FEA430C7FEA6C5CD6D152EA033CD3D008
:100A70005DF8040B704700BF8446104662468C4602
:100A80001946634600E000BF01B5FFF7B7FF002835
:100A900048BF10F1000F01BD4DF808EDFFF7F4FF5E
:100AA0000CBF012000205DF808FB00BF4DF808EDE9
:100AB000FFF7EAFF34BF012000205DF808FB00BF0C
:100AC0004DF808EDFFF7E0FF94BF012000205DF82E
:100AD00008FB00BF4DF808EDFFF7CEFF94BF0120E3
:100AE00000205DF808FB00BF4DF808EDFFF7C4FFDC
:100AF00034BF012000205DF808FB00BF4FEA410C25
:100B00007FEA6C5C02D150EA013C0AD14FEA430C07
:100B10007FEA6C5C02D152EA033C02D14FF0000044
:100B200070474FF0010070474FEA410212F5001282
:100B300015D211D56FF47873B3EB625212D94FEA24
:100B4000C12343F0004343EA505311F0004F23FA0E
:100B500002F018BF404270474FF00000704750EA63
:100B6000013005D111F0004008BF6FF00040704720
:100B70004FF00000704700BF53B94AB9002908BFC1
:100B800000281CBF4FF0FF314FF0FF3000F00CB8D1
:100B9000ADF1080C6DE904CE0DF00AFDDDF804E0BE
:100BA000DDE9022304B07047704700BF0348044BDF
:100BB000834202D0034B03B1184770470402002060
:100BC00004020020000000000548064B1B1AD90F44
:100BD00001EBA301491002D0034B03B11847704742
:100BE00004020020040200200000000010B5064CA2
:100BF000237843B9FFF7DAFF044B13B10448AFF38E
:100C000000800123237010BD0402002000000000BA
:100C10006CE8000808B5054B1BB105490548AFF362
:100C20000080BDE80840FFF7CFBF00BF0000000014
:100C3000080200206CE8000810B514461E2392B28A
:100C4000024801F00AFD204610BD00BF240200202A
:100C500008B572B6084B196808480BF083F84FF4D2
:100C60000051074800F04CFE034B1B68642098407D
:100C700001F036F9F3E700BF2002002088E8000801
:100C80000008024000B595B03022002108A80CF001
:100C9000DFFC0023039304930593069307930193CA
:100CA000224A116C41F080511164126C02F08052A2
:100CB0000192019A02931E4A136823F4404343F4BD
:100CC00000431360136803F440430293029B05231F
:100CD00008934FF48033099301230A9302230E9360
:100CE0004FF480030F93192310934FF4A8731193BB
:100CF000042312930723139308A800F03BF980B94B
:100D00000F23039302210491002305934FF4805293
:100D10000692079303A800F07DFB20B915B05DF89B
:100D200004FBFFF795FFFFF793FF00BF0038024079
:100D30000070004008B501F0A7F8FFF7A3FF00F02E
:100D400011F809F097FE05F07FFD05F053FE05F060
:100D5000CBFE06F005FC06F081FC00F057F809F028
:100D6000A3FEFEE730B58BB00024059406940794EB
:100D7000089409940094234B1A6B42F004021A63FE
:100D80001A6B02F004020092009A01941A6B42F06E
:100D900080021A631A6B02F080020192019A029497
:100DA0001A6B42F001021A631A6B02F001020292FE
:100DB000029A03941A6B42F008021A631A6B02F04B
:100DC00008020392039A04941A6B42F002021A6317
:100DD0001B6B03F002030493049B0B4D22464FF45C
:100DE0000051284600F086FD4FF40053059301237F
:100DF00006930794089405A9284600F097FC0BB0C9
:100E000030BD00BF003802400008024008B50A4863
:100E10000A4B03604FF4E133436000238360C360F7
:100E200003610C2242618361C36101F0E6FB00B9FA
:100E300008BDFFF70DFFFBE7240200200010014072
:100E400000B589B000230393049305930693079399
:100E5000026803F1804303F588339A4202D009B057
:100E60005DF804FB0021019103F594335A6C42F0C4
:100E700010025A645A6C02F010020192019A029117
:100E80001A6B42F002021A631B6B03F00203029317
:100E9000029BC02303930223049303230693072397
:100EA000079303A9014800F041FCD8E70004024081
:100EB000FEE7000008B5034B01221A60FFF7C8FEE9
:100EC000FEE700BF20020020FEE7FEE7FEE77047D6
:100ED0007047704708B500F0F1FF08BD08B502483B
:100EE00005F0DAFF08BD00BF2C26002008B5024837
:100EF00009F0D0FC08BD00BFDC26002008B5024880
:100F000001F084F808BD00BF9426002008B502480F
:100F100000F02AFE08BD00BFCC25002008B5002047
:100F200002F072FB08BD000082B0002100910B4B63
:100F30005A6C42F480425A645A6C02F48042009225
:100F4000009A01911A6C42F080521A641B6C03F0F3
:100F500080530193019B02B0704700BF00380240EC
:100F6000034AD2F8883043F47003C2F888307047DF
:100F700000ED00E0002800F0E08170B582B004468A
:100F8000036813F0010F3BD09F4B9B6803F00C03E9
:100F9000042B2CD09C4B9B6803F00C03082B21D016
:100FA0006368B3F5803F4FD0B3F5A02F52D0964B76
:100FB0001A6822F480321A601A6822F480221A60B9
:100FC0006368002B50D000F085FF05468E4B1B68F0
:100FD00013F4003F14D100F07DFF401B6428F5D9C5
:100FE0000320B1E1884B5B6813F4800FD8D0864BA7
:100FF0001B6813F4003F03D06368002B00F09F814F
:10100000236813F0020F54D07F4B9B6813F00C0F32
:101010003ED07D4B9B6803F00C03082B33D0E36874
:10102000002B68D0794B01221A6000F053FF05466F
:10103000754B1B6813F0020F54D100F04BFF401B9F
:101040000228F5D903207FE16F4A136843F4803307
:101050001360B5E76C4B1A6842F480221A601A6874
:1010600042F480321A60ABE700F034FF0546664B6D
:101070001B6813F4003FC3D000F02CFF401B642812
:10108000F5D9032060E1604B5B6813F4800FC6D193
:101090005D4B1B6813F0020F03D0E368012B40F097
:1010A0005081594A136823F0F803216943EAC103C8
:1010B0001360236813F0080F42D063696BB3534B7E
:1010C0000122C3F8802E00F005FF05464E4B5B6FF2
:1010D00013F0020F34D100F0FDFE401B0228F5D9B9
:1010E000032031E1484A136823F0F803216943EAF9
:1010F000C1031360DDE7454B00221A6000F0EAFEF1
:101100000546414B1B6813F0020FD2D000F0E2FEFF
:10111000401B0228F5D9032016E13C4B0022C3F8FE
:10112000802E00F0D7FE0546374B5B6F13F0020FA1
:1011300006D000F0CFFE401B0228F5D9032003E1C2
:10114000236813F0040F77D02F4B1B6C13F0805FD4
:1011500033D1002301932C4B1A6C42F080521A6455
:101160001B6C03F080530193019B0125284B1B68E6
:1011700013F4807F23D0A368012B34D0052B38D003
:10118000214B1A6F22F001021A671A6F22F0040233
:101190001A67A368002B3DD000F09CFE06461A4B50
:1011A0001B6F13F0020F46D100F094FE801B41F23A
:1011B00088339842F3D90320C6E00025D6E7144AC5
:1011C000136843F48073136000F084FE0646104BEE
:1011D0001B6813F4807FCED100F07CFE801B0228B8
:1011E000F5D90320B0E0084A136F43F001031367F9
:1011F000CFE7054B1A6F42F004021A671A6F42F0EC
:1012000001021A67C5E700BF0038024000004742EC
:101210000070004000F05EFE0646524B1B6F13F05C
:10122000020F08D000F056FE801B41F2883398422E
:10123000F3D9032088E0EDB9A369002B00F0838087
:10124000484A926802F00C02082A51D0022B17D0AB
:10125000454B00221A6600F03DFE0446414B1B68D8
:1012600013F0007F42D000F035FE001B0228F5D9B4
:10127000032069E03B4A136C23F080531364DBE7DF
:10128000394B00221A6600F025FE0546354B1B68D7
:1012900013F0007F06D000F01DFE401B0228F5D998
:1012A000032051E0E369226A1343626A43EA82132E
:1012B000A26A5208013A43EA0243E26A43EA02633D
:1012C000284A5360284B01221A6600F003FE0446A8
:1012D000244B1B6813F0007F06D100F0FBFD001BC0
:1012E0000228F5D903202FE000202DE000202BE07C
:1012F000012B2BD01B4B5B6803F48001E269914208
:1013000026D103F03F02216A8A4223D1616A47F65F
:10131000C0721A40B2EB811F1ED103F44031A26AA1
:101320005208013AB1EB024F18D103F07063E26A40
:10133000B3EB026F14D1002006E0012070470120BA
:1013400002E0012000E0002002B070BD0120FBE7B8
:101350000120F9E70120F7E70120F5E70120F3E795
:101360000120F1E7003802400000474208B5264B53
:101370009B6803F00C03042B41D0082B41D1224B76
:101380005A6802F03F025B6813F4800F12D01E4BC4
:101390005968C1F388111D480023A1FB0001FFF724
:1013A000EBFB194B5B68C3F3014301335B00B0FBFC
:1013B000F3F008BD144B5868C0F388104FEA401C86
:1013C000BCEB000C6EEB0E0E4FEA8E1343EA9C63EF
:1013D0004FEA8C11B1EB0C0163EB0E03DB0043EA27
:1013E0005173C90011EB000C43F100039902002373
:1013F0004FEA8C2041EA9C51FFF7BEFBD1E703483E
:10140000D7E70348D5E700BF0038024040787D01A8
:101410000024F400002800F09B8070B50D460446BF
:101420004F4B1B6803F007038B4208D2CBB24C4AE8
:101430001370136803F007038B4240F08B8023681E
:1014400013F0020F17D013F0040F04D0454A93682D
:1014500043F4E0539360236813F0080F04D0414A2B
:10146000936843F4604393603E4A936823F0F0032B
:10147000A1680B439360236813F0010F32D06368B7
:10148000012B21D09A1E012A25D9364A126812F062
:10149000020F61D033498A6822F0030213438B6044
:1014A00000F018FD06462F4B9B6803F00C036268A2
:1014B000B3EB820F16D000F00DFD801B41F2883394
:1014C0009842F0D9032042E0264A126812F4003F05
:1014D000E0D101203BE0234A126812F0007FD9D10D
:1014E000012034E01E4B1B6803F00703AB4207D911
:1014F000EAB21B4B1A701B6803F00703AB422DD1F5
:10150000236813F0040F06D0164A936823F4E053BF
:10151000E1680B439360236813F0080F07D0114A6A
:10152000936823F46043216943EAC1039360FFF7A2
:101530001DFF0C4B9B68C3F303130B4AD35CD840CD
:101540000A4B18600A4B186800F078FC002070BD48
:10155000012070470120FAE70120F8E70120F6E7B3
:10156000003C02400038024024F300080000002044
:1015700008000020014B1868704700BF00000020E1
:1015800008B5FFF7F7FF044B9B68C3F38223034AB8
:10159000D35CD84008BD00BF003802401CF30008EF
:1015A00008B5FFF7E7FF044B9B68C3F34233034AD8
:1015B000D35CD84008BD00BF003802401CF30008CF
:1015C00030B583B00446036813F0050F0ED12368CD
:1015D00013F0020F36D1236813F0080F00F09B8040
:1015E000227C4E4BC3F8E021002095E04C4B0022BA
:1015F0009A6600F06FFC05464A4B1B6813F0006FBB
:1016000006D000F067FC431B022BF5D9032083E0D2
:101610006268A3681B0743EA8213424AC2F8843017
:101620003F4B01229A6600F055FC05463D4B1B6876
:1016300013F0006FCBD100F04DFC401B0228F5D910
:10164000032069E000230193364B1A6C42F080526C
:101650001A641B6C03F080530193019B324A136898
:1016600043F48073136000F035FC05462E4B1B6875
:1016700013F4807F06D100F02DFC431B022BF5D91B
:10168000032049E0274B1B6F13F4407314D0E2682A
:1016900002F440729A420FD0224B1A6F22F4407229
:1016A0001F490120C1F8400E0020C1F8400E1A6702
:1016B0001B6F13F0010F12D1E36803F44072B2F50F
:1016C000407F1DD0174A936823F4F813936015499F
:1016D0000B6FE268C2F30B0213430B677BE700F06A
:1016E000F9FB05460F4B1B6F13F0020FE4D100F01E
:1016F000F1FB401B41F288339842F3D903200BE001
:1017000008498A6822F4F81223F0704323F44073E6
:1017100013438B60DBE7002003B030BD001047426D
:1017200000004742003802400070004000230F2BA9
:1017300000F2D78070B582B065E085684FEA430E4D
:10174000032404FA0EF425EA0405CC6804FA0EF426
:101750002C438460446824EA02044A68C2F30012FD
:101760009A40224342605CE0DC08083450F82420B0
:1017700003F00705AD004FF00F0E0EFA05FE22EA4A
:101780000E0E0A69AA4042EA0E0240F824205CE0EC
:10179000042200E0002202FA0EF22A430234514DE4
:1017A00045F82420504A94686FEA0C0224EA0C059C
:1017B0004E6816F4801F01D04CEA04054A4CA5601F
:1017C000E46802EA04054E6816F4001F01D04CEAF2
:1017D0000405454CE560646802EA04054E6816F4A9
:1017E000003F01D04CEA04053F4C6560246822406C
:1017F0004D6815F4803F01D04CEA04023A4C226057
:1018000001330F2B6BD801229A400C6804EA020CBA
:1018100032EA0404F4D14C6804F00304013C012CC6
:101820008BD94A6802F00302032A09D0C4685D001C
:101830000322AA4024EA02048A68AA402243C26022
:101840004A6802F00302022A8ED004684FEA430E6F
:10185000032202FA0EF224EA02044A6802F00302AA
:1018600002FA0EF2224302604A6812F4403FC7D0E7
:10187000002201921D4A546C44F480445464526C1A
:1018800002F480420192019A9C08A51C154A52F864
:10189000255003F0030E4FEA8E0E0F2202FA0EF2CD
:1018A00025EA0205124A90423FF474AF02F58062C5
:1018B00090420ED002F5806290420CD002F5806218
:1018C00090420AD002F5806290423FF461AF072255
:1018D00061E701225FE702225DE703225BE702B0D6
:1018E00070BD704700380140003C014000380240A4
:1018F000000002400AB181617047090481617047AC
:10190000436901EA030221EA030141EA02418161DC
:10191000704730B405682C6824F480242C60046877
:1019200063608368402B05D0036899600368DA60C0
:1019300030BC704703689A600368D960F8E700001C
:1019400010B40368D9B210390A4AA2FB0142120945
:10195000094CA25CC2655F2907D96FF30903043300
:101960008365806D5DF8044B70476FF309038365F1
:10197000F7E700BFABAAAAAA34F30008836A82691A
:1019800092B9012B0AD0022B02D00BB10020704774
:10199000C36A13F0807F28D100207047C36AB3F177
:1019A000C07F24D000207047B2F5005F09D0022B21
:1019B00025D9032B25D1C36A13F0807F23D10020C2
:1019C0007047032B03D8DFE803F01404140A002047
:1019D0007047C36A13F0807F0DD100207047C36A3F
:1019E000B3F1C07F09D0002070470120704701206B
:1019F0007047012070470120704701207047012087
:101A000070470020704701207047000070B5044601
:101A100000F060FA002C5BD00546022384F83530D4
:101A2000002384F834302268136823F00103136024
:101A300023681A6812F0010F0AD000F04BFA431B1A
:101A4000052BF5D920236365032084F8350070BD8C
:101A50001A68204911406268A0680243E0680243A6
:101A60002069024360690243A0690243E0690243BE
:101A7000206A02430A43616A04291ED01A6026685C
:101A8000756925F00705636A1D43042B07D1A36A16
:101A90001D43E36A1BB12046FFF770FF90B97561E3
:101AA0002046FFF74DFFE26D3F2393408360002007
:101AB0006065012384F83530C9E7E16A206B014392
:101AC0000A43DBE740236365012084F83500BEE765
:101AD0000120BCE73F8010F038B50446856D90F8D2
:101AE000340001282BD0012084F8340094F835000C
:101AF000C0B2012804D0002384F83430022038BD5D
:101B0000022084F83500002060652046FFF701FFC1
:101B1000E26D3F239340AB602268136843F01603E5
:101B20001360236C23B12268136843F00803136029
:101B30002268136843F0010313600020DFE70220EE
:101B4000DDE790F83530DBB2022B03D0802343650C
:101B500001207047052380F835300268136823F0B0
:101B60000103136000207047F0B583B004460023E2
:101B70000193724B1D68724BA3FB0535AD0A876D4F
:101B80003E68C26D08239340334210D003681A6840
:101B900012F0040F0BD01A6822F004021A60C26D12
:101BA00008239340BB60436D43F001034365E26D3E
:101BB00001239340334209D02268526912F0800F0A
:101BC00004D0BB60636D43F002036365E26D0423E0
:101BD0009340334209D02268126812F0020F04D0F9
:101BE000BB60636D43F004036365E26D10239340B3
:101BF000334224D02268126812F0080F1FD0BB6055
:101C000023681A6812F4802F0DD01B6813F4002F7C
:101C100004D1236C9BB12046984710E0A36C73B1AC
:101C2000204698470BE01A6812F4807F03D11A68A7
:101C300022F008021A60236C0BB120469847E26D2F
:101C400020239340334255D02268126812F0100FBF
:101C500050D0BB6094F83530DBB2052B0ED0236832
:101C60001A6812F4802F33D01B6813F4002F2AD186
:101C7000636C002B3ED0204698473BE022681368F7
:101C800023F0160313602268536923F08003536125
:101C9000236CA3B12268136823F008031360E26D7C
:101CA0003F239340BB60012384F83530002384F840
:101CB0003430236D002B3FD0204698473CE0A36C86
:101CC000002BE7D1EBE7E36BA3B12046984711E087
:101CD0001A6812F4807F09D11A6822F010021A6083
:101CE000012384F83530002384F83430E36B0BB1E2
:101CF00020469847636DFBB1636D13F0010F17D059
:101D0000052384F835302268136823F0010313603B
:101D1000019B01330193AB4204D823681B6813F085
:101D2000010FF5D1012384F83530002384F83430D5
:101D3000E36C0BB12046984703B0F0BD00000020D3
:101D4000B5814E1B002807DB00F01F02400901236C
:101D50009340024A42F82030704700BF00E100E0A3
:101D6000002808DB0901C9B200F1604000F56140BC
:101D700080F80013704700F00F000901C9B2014B51
:101D80001954704714ED00E000B500F00700C0F1F1
:101D9000070CBCF1040F28BF4FF0040C031D062BE9
:101DA0000FD9C31E4FF0FF3E0EFA0CF021EA0001DE
:101DB00099400EFA03FE22EA0E0241EA02005DF8A3
:101DC00004FB0023EEE70000074AD36823F4E06336
:101DD0001B041B0C000200F4E060034343F0BF63EC
:101DE00043F40033D360704700ED00E010B50446C3
:101DF000054BD868C0F30220FFF7C6FF0146204616
:101E0000FFF7AEFF10BD00BF00ED00E008B5FFF723
:101E100099FF08BD0138B0F1807F0BD24FF0E0236D
:101E20005861054AF02182F82310002098610722AA
:101E30001A6170470120704700ED00E010B50446BC
:101E40000E4B1A784FF47A73B3FBF2F30C4A106816
:101E5000B0FBF3F0FFF7DEFF68B90F2C01D90120CA
:101E60000AE0002221464FF0FF30FFF7BFFF054B8D
:101E70001C60002000E0012010BD00BF0400002015
:101E8000000000200800002008B50B4B1A6842F43F
:101E900000721A601A6842F480621A601A6842F48A
:101EA00080721A600320FFF78FFF0F20FFF7C6FF35
:101EB000FFF73AF8002008BD003C0240034A1168D1
:101EC000034B1B780B441360704700BF6C0200206B
:101ED00004000020014B1868704700BF6C0200200E
:101EE00038B50446FFF7F6FF0546B4F1FF3F02D0D0
:101EF000044B1B781C44FFF7EDFF401BA042FAD3B4
:101F000038BD00BF04000020014BD3F8100A704711
:101F10000070FF1F014BD3F8140A70470070FF1FB9
:101F2000014BD3F8180A70470070FF1F10B4036A02
:101F3000046A24F001040462846924F0F00C4CEA81
:101F4000021223F00A030B43826103625DF8044B23
:101F5000704710B4036A046A24F0100404628469B0
:101F600024F4704C4CEA023223F0A00343EA01133C
:101F7000826103625DF8044B7047836823F070034D
:101F80000B4343F0070383607047000090F83D3037
:101F9000DBB2012B2FD1022380F83D300268D368D9
:101FA00043F00103D3600368154A934218D0B3F19C
:101FB000804F15D0A2F57C42934211D002F5806289
:101FC00093420DD002F58062934209D002F59A3215
:101FD000934205D01A6842F001021A60002070474F
:101FE0009A6802F00702062A07D01A6842F0010236
:101FF0001A6000207047012070470020704700BF22
:1020000000000140704770477047704770B5044644
:102010000368DE681D6915F0020F10D016F0020F7C
:102020000DD06FF002021A610123037703689B69E8
:1020300013F0030F5ED0FFF7E6FF0023237715F0C0
:10204000040F12D016F0040F0FD023686FF00402B3
:102050001A610223237723689B6913F4407F4FD0D2
:102060002046FFF7D0FF0023237715F0080F12D08A
:1020700016F0080F0FD023686FF008021A610423CE
:1020800023772368DB6913F0030F40D02046FFF766
:10209000BAFF0023237715F0100F12D016F0100F9F
:1020A0000FD023686FF010021A610823237723688A
:1020B000DB6913F4407F31D02046FFF7A4FF0023F3
:1020C000237715F0010F02D016F0010F2DD115F076
:1020D000800F02D016F0800F2FD115F0400F02D0E4
:1020E00016F0400F31D115F0200F02D016F0200F5E
:1020F00033D170BDFFF786FF2046FFF785FF9CE7D1
:102100002046FFF77FFF2046FFF77EFFABE7204624
:10211000FFF778FF2046FFF777FFBAE72046FFF783
:1021200071FF2046FFF770FFC9E723686FF00102D7
:102130001A61204609F0F8F8C9E723686FF08002B9
:102140001A61204600F05FF9C7E723686FF040028C
:102150001A612046FFF759FFC5E723686FF0200298
:102160001A61204600F04EF9C3E700000368294ACF
:1021700090420ED0B0F1804F0BD0A2F57C4290423D
:1021800007D002F58062904203D002F5806290424F
:1021900003D123F070034A6813431E4A90421AD0B9
:1021A000B0F1804F17D0A2F57C42904213D002F5D7
:1021B000806290420FD002F5806290420BD002F50F
:1021C0009A32904207D002F58062904203D002F525
:1021D0008062904203D123F44073CA68134323F012
:1021E00080034A69134303608B68C3620B68836290
:1021F000084B98420AD001234361036913F0010F91
:1022000003D0036923F00103036170470B69036383
:10221000F1E700BF0000014040B310B5044690F85C
:102220003D30F3B1022384F83D30214651F8040BD0
:10223000FFF79CFF012384F8463084F83E3084F891
:102240003F3084F8403084F8413084F8423084F8DC
:10225000433084F8443084F8453084F83D30002021
:1022600010BD80F83C3004F077FCDBE701207047BC
:1022700010B4846824F47F4C42EA03220A4342EA01
:102280000C0282605DF8044B704790F83C30012BE3
:1022900078D010B50446012380F83C30022380F842
:1022A0003D300268936823F47F4323F07703936003
:1022B0000B68602B4CD023D8402B54D011D8202B46
:1022C00003D00AD80BB1102B05D119462068FFF7AF
:1022D00054FE002028E0012026E0302BF5D001201C
:1022E00022E0502B0AD1CA6849680068FFF71EFE39
:1022F00050212068FFF741FE002015E0012013E087
:10230000B3F5805F3AD0B3F5005F14D0702B37D1AE
:10231000CB684A6889680068FFF7AAFF226893685B
:1023200043F0770393600020012384F83D300023BD
:1023300084F83C3010BDCB684A6889680068FFF7B4
:1023400097FF2268936843F4804393600020EBE793
:10235000CA6849680068FFF7FCFD60212068FFF744
:102360000CFE0020E0E7CA6849680068FFF7DEFD60
:1023700040212068FFF701FE0020D5E70020D3E7C9
:102380000120D1E70220704790F83C20012A35D087
:1023900010B40346012280F83C20022280F83D2040
:1023A00002685068946820F0700C086840EA0C00DD
:1023B00050601A681248824212D0B2F1804F0FD09A
:1023C000A0F57C4082420BD000F58060824207D0AD
:1023D00000F58060824203D000F59A30824204D139
:1023E00024F08004496821439160012283F83D2054
:1023F000002083F83C005DF8044B704702207047D2
:102400000000014070477047026802F10C0353E876
:10241000003F23F490730C3242E800310029F3D1DD
:10242000026802F1140353E8003F23F00103143261
:1024300042E800310029F3D1036B012B05D02023A2
:1024400080F84230002303637047026802F10C03F6
:1024500053E8003F23F010030C3242E8003100291A
:10246000F3D1ECE710B504460268136923F4405336
:10247000C1680B431361836802691A4343691A43B5
:10248000C3691A430168CB6823F4164323F00C0395
:102490001343CB600268536923F4407381690B4393
:1024A00053610368314A934206D002F58062934239
:1024B00002D0FFF765F801E0FFF772F8E369B3F5C2
:1024C000004F29D00021031849411B1841F1000198
:1024D000C90041EA5371DB00181863684FEA8302B0
:1024E0004FEA937341F10001FEF746FB204AA2FB3D
:1024F00000314909642303FB11031B013233A2FBA2
:1025000003235B0903F0F00202EB011203F00F0357
:10251000216813448B6010BD0023021843EB0301B4
:10252000121841F10001C90041EA5271D20010189D
:1025300041F10001626892185B41FEF71DFB0C4AF5
:10254000A2FB00314909642303FB1103DB00323392
:10255000A2FB03235B095A0002F4F87202EB01129A
:1025600003F00703216813448B60D4E70010014097
:102570001F85EB512DE9F04383B005460E46174603
:102580009946DDF828802B681C6836EA04040CBFE5
:1025900001240024BC4228D1B8F1FF3FF3D0FFF75B
:1025A00099FCA0EB0900404523D8B8F1000F22D0D8
:1025B0002B68DA6812F0040FE5D0802EE3D0402EAD
:1025C000E1D01A6812F0080FDDD0002401941A68D7
:1025D00001925B680193019B2846FFF715FF0823D2
:1025E0006B6485F84040012000E0002003B0BDE8A6
:1025F000F0830320FAE70320F8E760B310B5044640
:1026000090F8413013B3242384F841302268D36812
:1026100023F40053D3602046FFF724FF2268136998
:1026200023F4904313612268536923F02A03536112
:102630002268D36843F40053D360002060642023F1
:1026400084F8413084F84230606310BD80F8403037
:10265000FEF7F6FBD7E7012070472DE9F04182B085
:102660001E4690F84130DBB2202B56D104460D4671
:102670009046002955D00AB901204FE00023436459
:10268000212380F84130FFF725FC0746A4F8248079
:10269000A4F82680A368B3F5805F02D04FF000084D
:1026A00014E023692BB34FF000080FE0202384F8D7
:1026B0004130032032E038F8023B2268C3F30803BC
:1026C0005360E28C92B2013A92B2E284E38C9BB204
:1026D00093B100963B46002280212046FFF74AFF37
:1026E0000028E3D1002DE6D015F8012B23685A60AD
:1026F000E7E7A8460025E9E700963B46002240218F
:102700002046FFF737FF18B9202384F8413005E051
:10271000202384F84130032000E0022002B0BDE80D
:10272000F0810120FAE7000010B503460C4A0D497C
:102730000D48006840B10C4800680344521A9342A7
:1027400006D8094A136010BD0748084C0460F2E738
:102750000AF040FF0C2303604FF0FF30F3E700BFA7
:10276000000001200010000070020020A82B0020B3
:102770000120704708B50AF02DFF162303604FF0C3
:10278000FF3008BD08B54FF0FF31FFF7F3FFFEE75C
:1027900070B50C461646002506E0AFF300802146D2
:1027A00001F8010B01350C46B542F6DB304670BD31
:1027B0004FF0FF3070474FF400534B6000207047DC
:1027C0000120704700207047002807DB00F01F023F
:1027D000400901239340024A42F82030704700BF6D
:1027E00000E100E000280CDB00F01F02400901239B
:1027F00093402030034A42F82030BFF34F8FBFF39D
:102800006F8F704700E100E059BB1E4B1B681E4AEA
:1028100093421FD21D4A934224D81D4A934223D289
:102820001C4A934222D8A2F5DB12A2F5BA52934277
:102830001ED8A2F5B712A2F5587293421AD8164ABA
:10284000934219D2154A934218D2154A934217D38C
:102850000E2200E00622C36823F4705343EA822369
:10286000C36070470722F6E70822F4E70922F2E77F
:102870000A22F0E70B22EEE70C22ECE70D22EAE752
:102880000F22E8E7000000200048E801DF9DA301D7
:1028900000366E013FA44C01807306010024F40051
:1028A000C0E1E40030B40001214B1C588B7803F0E8
:1028B0007F02DD098888C0F30A004FEA420C0CEB66
:1028C000D31C1C4B03EB0C13588191F806C083F802
:1028D0000CC0C97801F003039B0401F00301012936
:1028E00015D04FF080510B43034343F4004385B9A7
:1028F00002F1580149016350D4F81C3802F110016B
:1029000001228A401343C4F81C3830BC70470021B0
:10291000E9E743EA825302F1480149016350D4F8E0
:102920001C38012101FA02F21343C4F81C38ECE709
:1029300064F300087C02002030B400013A4B1B58BD
:1029400001F07F00C90912D103F5306128B14401BB
:1029500001EB401C0D59002D45DB40010B58002AAE
:102960003FD04FF4001213430B5030BC704703F5B7
:10297000106C30B145010CEB40115CF80540002CA7
:1029800014DB44015CF804106AB14FF002620A43A0
:102990004CF80420800140F0200018611A6912F000
:1029A000200FFBD1E1E74FF00062F0E75CF8054053
:1029B00044F000644CF805408C6814F0400FFBD0E4
:1029C0005CF8054052B1194A22434CF805208A6848
:1029D00012F0020FFBD002228A60DBE74FF0804248
:1029E000F2E70022BFE7D3F8040840F40070C3F810
:1029F0000408586910F0800FFBD008598AB10B4ABF
:102A000002430A51DCF8082012F0020FFAD0022229
:102A1000CCF80820D3F8042842F48062C3F80428D4
:102A2000A3E74FF08042EBE764F30008000020408A
:102A3000F0B5BDF8144000013F4D2D58084671B95E
:102A40003E4F37F8121002EB40063D4C04EB0614E3
:102A500064898C4228BF0C46091B27F81210012AF2
:102A600020D005F530614FEA401E01EB401CDCF838
:102A7000106006F06046CCF81060DCF8106044EAA4
:102A8000C3443443CCF8104051F80E3043F00443B3
:102A900041F80E3051F80E3003F44023B3F5802F87
:102AA00032D0F0BD05F51061460101EB401744EA54
:102AB000C3433B618B5943F004438B518B5903F45F
:102AC0004023B3F5802F09D0002CEAD0D5F8343854
:102AD000012282401343C5F83438E2E702EB40029A
:102AE000174B03EB02131B7B012BEDD1D5F8082804
:102AF0008B5912F4807F04D04FF0805213438B51D6
:102B0000E2E74FF00052F9E702EB40020C4B03EB17
:102B100002131B7B012BC4D1D5F8082851F80E30C5
:102B200012F4807F05D04FF08052134341F80E30ED
:102B3000B7E74FF00052F8E764F30008780200208E
:102B40007C020020036943F001030361036913F071
:102B5000010FFBD10369002BFCDA7047002070479E
:102B600010B40001114B1C58900805E004F580508A
:102B7000006841F8040B1846431E9BB20028F5D1AB
:102B8000D0B212F003020ED004F5805423680B700B
:102B900010F0020F02D0C3F307204870022A02D9B6
:102BA000C3F307438B705DF8044B704764F3000870
:102BB00010B50001124C245801F1010C4FEA0C3EF3
:102BC00004EB0C3C990804E052F8041BCCF800100C
:102BD0000146481E80B20029F6D1D8B213F0030393
:102BE0000DD0117810F0020F02D0507841EA002188
:102BF000022B02D9937841EA034144F80E1010BD2C
:102C000064F3000838B50446C56890F8483003F00E
:102C1000C003802B0BD0244809F076FC25F0580522
:102C200094F851303F2B0BD945F0080508E01F48B8
:102C300009F06AFC25F4681525F0C80545F0100573
:102C4000E56094F848309B0923D1A36B43F48033AB
:102C5000A3632046FFF776FF25F4705594F85130B2
:102C60003F2B1BD94FF4A0532B43E36094F848103B
:102C700089092046FFF7C8FDD4F8003823F0030384
:102C800094F8482002F0C002802A0AD0C4F8003824
:102C900038BDA36B23F48033A363DAE74FF41053FA
:102CA000E2E743F48043F1E7C0E80008A4E8000845
:102CB00010B504460F4809F027FCE36843F04003D1
:102CC000E360A36B43F48033A3632046FFF73AFF2E
:102CD000E36823F4705343F4A053E36000212046DB
:102CE000FFF792FDD4F8003843F00303C4F800382E
:102CF00010BD00BFDCE80008F8B5394B040103EB58
:102D000000101D59037A01F07F06B34215D9C90995
:102D10000332940879BBC4F30D0423445B000F33E2
:102D20009BB26A6A9A4259D22E4A12881A44B2F564
:102D3000A07F11D86B62012040E084222A492B48F1
:102D400009F010F84FF0E023D3F8F03D13F0010F35
:102D500000D000BE002031E0A2222349234809F020
:102D600001F84FF0E023D3F8F03D13F0010F00D04D
:102D700000BE002022E0AB6813F0800F01D1640098
:102D8000A4B2184B1A881319696A0B44B3F5A07FD3
:102D900015D8224492B2134F3A809200C2F5A06235
:102DA000A100134808F0DEFF3B88C3F5A07343EA97
:102DB00004433F3605EB86056B600120F8BDAF226A
:102DC00009490A4808F0CEFF4FF0E023D3F8F03D60
:102DD00013F0010F00D000BE0020EFE70120EDE767
:102DE00064F30008760200203CF30008F0E80008D5
:102DF00008E9000838B5334B020103EB00109C587A
:102E0000057A8022002130480AF022FC00232F4A54
:102E10001370D4F8002822F4FE62C4F8002808E0F9
:102E200003F158025201A15841F00061A150013351
:102E3000DBB2AB42F4D3002301E00133DBB2AB429F
:102E40000DD203F148025201A258002AF5DA03F12B
:102E500048025201A15841F09041A150EDE74FF4D2
:102E600084632361236913F0200FFBD110232361B6
:102E7000236913F0100FFBD14FF00113C4F81C3875
:102E80000923C4F81438C4F810386D002F35656272
:102E90000F4B10221A800F4BA362D4F8003923F095
:102EA0000303C4F80039084B40225A815A83D4F8EE
:102EB000103B43F0C043C4F8103BA36943F44023E4
:102EC000A36138BD64F300087C0200207402002076
:102ED00076020020300110002DE9F04186B0064650
:102EE000374B010103EB00125D58177A00243DE0D7
:102EF000082205EB4813C3F8082B0023039304931F
:102F000005938DF80C6006238DF80D302D4B93E85A
:102F1000030006AB03E90300012103A802F00AFD48
:102F200005EB4813D3F8083B13F0010F1CD005EB59
:102F300048130122C3F8082B14B9234B1B889BBBF1
:102F4000224B03EB48131A89002303930493059340
:102F50008DF80C6007238DF80D308DF81040059228
:102F6000012103A802F0E6FC0134E4B2BC4223D202
:102F7000D5F8183804F11002D34013F0010FF3D044
:102F8000A04605EB4413D3F8083B13F0080FC7D055
:102F900013F4004FACD02A6C0D4B9A4201D8082292
:102FA000A7E748F20802A4E700931346002221464F
:102FB0003046FFF73DFDD7E706B0BDE8F08100BF22
:102FC00064F30008FC020020780200207C0200204C
:102FD0000930544F2DE9F04103013F4AD5582C6A7E
:102FE000C4F3434304F00F06C4F30A14013B052B5A
:102FF00069D8DFE803F00A154D0C680305F5805524
:103000002A68364B1A602A685A60BDE8F08105EBE1
:103010004615D5F8103B43F0C043C5F8103BF4E724
:1030200005F580512E4B03EB46135B6813B3224624
:10303000184600F067FE2A4B03EB46135B89A34258
:10304000E3D905EB4615D5F8101BC1F31201244A4C
:1030500002EB461213895B1A9BB21381002ED4D166
:10306000204908881E4A02EB46121B1A13810023CE
:103070000B80CAE7DFF868807701224658F807100E
:10308000FFF76EFD58F80730234448F80730D2E7C1
:10309000002EBAD1002CB8D12A6C134B9A42B4D965
:1030A00005EB4613D3F8083B48F220021342ACD09C
:1030B00013F0200F05D1012305EB4615C5F8083B99
:1030C000A3E72123F8E74FF0E023D3F8F03D13F016
:1030D000010F9AD000BE98E764F30008FC020020BC
:1030E0007C020020780200200930544F2DE9F04F77
:1030F0008BB0504B010103EB001253F8019092F892
:1031000008A009F5106500240290AB4623E044F0C6
:103110008003494A02EB4812118B00220792089261
:103120000992029A8DF81C2007228DF81D208DF837
:1031300020300991012107A802F0FCFBB36813F0CD
:10314000800F06D0D9F83438012505FA08F52B424E
:1031500020D10134E4B2544568D2D9F81838E3409C
:1031600013F0010FF5D0A0460BEB4416B36813F033
:10317000010FE3D00123B360002CC8D12F4B5B8833
:10318000002BC4D0009301231A4621460298FFF772
:103190004FFCD3E73369C3F3C94300270395CDF848
:1031A00010A0CDF814B09B4610E0234B03EB481A57
:1031B0002B46DAF8102021460298FFF7F9FCDAF8DE
:1031C00010302B44CAF810300137BFB25F451CD213
:1031D00033699BB2184A02EB4812558B9D4228BFB7
:1031E0001D46B269164B03EA82039D420DD8124B6D
:1031F00003EB481358690028D7D008F101012A468B
:1032000009EB013100F051FDDEE7039DDDF810A070
:10321000DDF814B03369C3F31203002B99D1D9F848
:10322000343823EA0503C9F8343892E70BB0BDE817
:10323000F08F00BF64F300087C02002078020020B9
:10324000FCFF030070B5064600F13C05084809F094
:103250005BF9002405E055F82410064808F082FDCB
:103260000134042CF7D9316D034808F07BFD70BDA3
:1032700030E9000864E9000870E9000810B5044668
:10328000FFF7E0FF236C6FF30F03104A934218D04F
:103290000F4A934217D002F58032934201D10120A8
:1032A00010E04FF40B720B490B4808F05BFD4FF038
:1032B000E023D3F8F03D13F0010F00D000BE002052
:1032C00000E0012010BD0120FCE700BF0000544FCA
:1032D0000000315558F30008F0E8000808B5044B29
:1032E00003EB001393F90400FFF76EFA08BD00BF6B
:1032F00064F3000808B5044B03EB001393F90400D2
:10330000FFF770FA08BD00BF64F300080001044B2A
:103310001A58D2F8043823F00203C2F80438704770
:1033200064F300080001044B1A58D2F8043843F043
:103330000203C2F80438704764F3000838B5054644
:1033400003012A4AD4582046FFF798FF00B938BD38
:103350002846FFF7E7FF2046FFF700FC002841D092
:103360002046FFF74FFCD4F8003E23F00F03C4F8CB
:10337000003EE36843F00703E360E36823F0C043E3
:1033800043F08043E360236823F0D00343F0C0039D
:103390002360D4F8003843F00403C4F800384FF435
:1033A00084632361236913F0200FFBD11023236171
:1033B000236913F0100FFBD16269636913436361E2
:1033C0006268636813436360094BA361A36843F0B9
:1033D0008003A360A36843F00103A3602846FFF7BE
:1033E00095FFB4E72046FFF763FCBCE764F30008F1
:1033F000143800800001084B1B58084A117031B185
:1034000008225A619A6942F008029A6170479A69E3
:1034100022F008029A61704764F3000874020020E9
:1034200070B505460C468A88C2F30A028978FFF710
:1034300063FC064628B121462846FFF733FA30469A
:1034400070BD40F2D1220649064808F08BFC4FF0CF
:10345000E023D3F8F03D13F0010FF0D000BEEEE70B
:1034600048F30008F0E8000810B5284B020103EB10
:1034700000109B5890F808C04FF00112C3F81C28A8
:1034800001220EE002F1580040011C5844F0904423
:103490001C500FE01E4800EB411100204883013210
:1034A000D2B262451BD2114602F1580040011858B1
:1034B0000028E7DB164800EB41104FF0000EA0F8A3
:1034C0000AE001F14800400118587045E2DA01F1C4
:1034D000480040011C5844F090441C50DAE74FEA81
:1034E0004C0C0CF12F025A620A4A102111804FF441
:1034F00084621A611A6912F0200FFBD110221A613E
:103500001A6912F0100FFBD110BD00BF64F3000860
:103510007C0200207602002070B582B08E461646EE
:103520001C4601F07F014FEADE12184B4FEA410CB6
:103530000CEBDE1C4FEA0C1503EB0C1C5E51002358
:10354000CCF80430ACF80840B9B102EB41050F4BA0
:1035500003EB05135D89B4FBF5FC1FFA8CF305FB47
:103560001C4C1FFA8CF505B90CB901339BB20094C1
:10357000FFF75EFA012002B070BD054B23F8124040
:1035800000940123FFF754FAF4E700BF7C02002007
:103590007802002008B50301074AD258D2F8003853
:1035A00023F4FE6343EA0113C2F8003800231A46ED
:1035B0008021FFF7B1FF08BD64F3000808B50122C0
:1035C000FFF7BAF908BD000000010E4B1A5801F0D0
:1035D0007F03C9090AD158335B01D15821F4001186
:1035E000D150D15841F08051D150704748335B01E0
:1035F000D15821F40011D150D15841F08051D1500F
:10360000704700BF64F30008F0B585B006460301BB
:10361000564AD458A36965691D4015F4805F62D18C
:1036200015F4005F1AD04FF400536361D4F80838E2
:10363000C3F3410213F0060F5BD0022A5BD10122D3
:1036400000230193029303938DF8046001218DF808
:1036500005108DF8082001A802F06CF915F4006F30
:103660004BD1002D5BDB15F0040F04D0676817F019
:10367000040F65D1676015F0080F1AD00823636145
:10368000D4F80838C3F30D23394A12781AB9A2695D
:1036900022F00802A26100220192029203928DF8A8
:1036A000046003228DF805200293012101A802F095
:1036B00041F915F0100F0ED0A36923F01003A36198
:1036C0003046FFF787FC636913F0100FF8D1A36948
:1036D00043F01003A36115F4002F3FD115F4802FA0
:1036E00040D105B0F0BD4FF480536361FFF782FB1A
:1036F00096E70222A4E70022A2E74FF40063636189
:1037000000230193029303938DF8046004238DF842
:10371000053001210DEB030002F00CF9A1E74FF099
:103720000043636100230193029303938DF80460C7
:1037300005238DF80530012101A802F0FBF892E77E
:1037400000230193029303938DF8046002238DF804
:103750000530012101A802F0EDF88BE73046FFF7B4
:10376000BBFBBBE73046FFF7C1FCBAE764F30008D8
:103770007402002003460A4490B2814202D8B0EBA2
:10378000430F03DB5B009BB2C01A80B2704710B5D9
:1037900086460846BEF804C09A420CD3D41AA4B296
:1037A00024B3A44514D294450CD8A2EB0C0293B2D6
:1037B000AEF80A300CE0D41A4FEA4C0111FA84F446
:1037C000A4B2EDE7624493B2F2E7A3EB0C039BB221
:1037D0009C45FAD9DEF80010BEF80620C2F30E02AE
:1037E00002FB031108F044FF012010BD0020FCE79C
:1037F00030B583B00546940803E051F8044B2C60C3
:103800001C46631E9BB2002CF7D112F0030201D1BB
:1038100003B030BD0023019301A808F029FF019BEC
:103820002B60F5E72DE9F04782B005460E469DF87E
:1038300028E0B0F804C0ACEB030080B2A3EB0C0CA2
:1038400094441FFA8CFCE988C1F30E0919FB00F7B8
:10385000BFB219FB0CFC1FFA8CFA2C6809FB034859
:10386000BEF1000F05D0BEF1010F17D002B0BDE8C8
:10387000F0874946904206D301FB02F241463046AA
:1038800008F0F6FEF2E73A464146304608F0F0FE10
:1038900052462968F01908F0EBFEE7E7904207D39B
:1038A00019FB02F292B241463046FFF7A1FFDDE775
:1038B00027F003021FFA82F94A4641463046FFF7D5
:1038C00097FF08EB090217F003012CD0C1F10407A0
:1038D000BFB2574528BF5746FFB2AAEB070C1FFAE5
:1038E0008CFA0023019301A804E012F8011B00F8F0
:1038F000011B19464B1EDBB20029F6D1296804E0F2
:1039000011F8012B00F8012B1F467B1EDBB2002FA4
:10391000F6D1019B3360BAF1000FA7D05246304672
:10392000FFF766FFA2E72968F5E730B583B09E464A
:10393000BDF81830B0F804C09E4511D3AEEB0304B7
:10394000A4B224B3A44507D2F44511D8AEEB0C0EB3
:103950001FFA8EF343816446944210D314460EE05E
:10396000AEEB03044FEA4C0515FA84F4A4B2E8E781
:10397000E6441FFA8EF3EDE7A3EB0C039BB29C45E4
:10398000FAD99DF81C2000922246FFF74BFF2046F3
:1039900003B030BD30B583B00446B0F808C04589E7
:1039A000ADB2019300951FFA8CF3FFF7BEFF0546F9
:1039B0006189024689B2A088FFF7DCFE6081284653
:1039C00003B030BD10B582B0940803E00C6840F835
:1039D000044B1C46631E9BB2002CF7D112F003026D
:1039E00001D102B010BD0B68019301A908F040FE9F
:1039F000F7E72DE9F04782B005460E469DF828E02E
:103A0000B0F804C0ACEB030189B2A3EB0C0C9444F6
:103A10001FFA8CFCC088C0F30E0919FB01F7BFB276
:103A200019FB0CFC1FFA8CFA2C6809FB0348BEF149
:103A3000000F05D0BEF1010F17D002B0BDE8F0872E
:103A40004846914206D300FB02F23146404608F058
:103A50000FFEF2E73A463146404608F009FE52466C
:103A6000F119286808F004FEE7E7914207D319FB33
:103A700002F292B231464046FFF7A4FFDDE727F09D
:103A800003021FFA82F94A4631464046FFF79AFF81
:103A900008EB090217F003002AD0C0F10407BFB2F7
:103AA000574528BF5746FFB2AAEB070C1FFA8CFAFE
:103AB0003368019301A904E011F8010B02F8010B2E
:103AC0001846431EDBB20028F6D1286804E011F83E
:103AD000012B00F8012B1F467B1EDBB2002FF6D115
:103AE000BAF1000FA9D052463146FFF76BFFA4E7A9
:103AF0002868F5E72DE9F04383B09146002A5BD0B2
:103B0000044688461F460689B6B2418989B2C37900
:103B1000DB0918D183888E420DD3711A89B28B428A
:103B20000FD95D1AADB24D4528BF4D46002D44D08A
:103B3000A288334631E0711A5A0012FA81F189B233
:103B4000EDE70025EFE78588954209D8FFB9A2EB9C
:103B50000509C388C3F30E0303FB09880E46E5E796
:103B60008E420ED3731A9BB24B44B3EB450F10DB5E
:103B7000A5EB090292B22846FFF7FCFD06464D462A
:103B8000D4E7731A6A0012FA83F39BB2ECE70E468D
:103B9000CCE74D46CAE79B1A9BB29A42FBD90097E5
:103BA0002A4641462046FFF724FF2A463146A08890
:103BB000FFF7E0FD208100E01546284603B0BDE890
:103BC000F083B2F5004F10D801608280C28863F3A1
:103BD0000E02C280C3799DF8002062F3C713C3713F
:103BE0000023438103810120704700207047024673
:103BF000808813899BB2528992B2934205D39B1A53
:103C00009BB2984228BF184670479B1A420012FA8E
:103C100083F39BB2F5E7028992B243899BB29A4241
:103C200014BF002001207047818803899BB242891C
:103C300092B2934206D39B1A98B281428CBF002065
:103C4000012070479B1A4A0012FA83F398B2F4E7F6
:103C5000828803899BB2418989B28B4206D35B1A61
:103C60009BB29A4208D9D01A80B270475B1A5100B1
:103C700011FA83F39BB2F4E70020704738B504468D
:103C8000028943899BB292B2FFF781FD05466189A3
:103C9000024689B2A088FFF76DFD6081284638BDD5
:103CA00008B50023FFF776FE08BD08B50123FFF72E
:103CB00071FE08BD70B504460E460589ADB2FFF72A
:103CC000B3FF10B1E079C00916D0A2882B4601E0FD
:103CD0009B1A9BB29A42FBD92068E288C2F30E027B
:103CE000314602FB030008F0C3FC01222946A088EC
:103CF000FFF740FD2081012070BD08B50023FFF7CC
:103D0000F9FE08BD08B50123FFF7F4FE08BD002346
:103D10004381038101207047C37961F3C713C371E5
:103D20000120704738B5044601F060FD30B900232A
:103D3000184613B1E37843B9002038BD01F05EFDA9
:103D400008B90123F4E70023F2E704F1100528463F
:103D5000FFF77EFF3F2801D80020EEE7E178002042
:103D600001F07AFF0028E8D02846FFF771FF3F28CE
:103D700007D9402304F1A802E178002001F08CFF6C
:103D8000DBE7E178002001F077FF0020D5E70000B5
:103D900008B54FF4947303FB00F01030024B184445
:103DA000FFF725FF08BD00BF0803002038B54FF41A
:103DB000947303FB00F00A4BC518103018444FF6FB
:103DC000FE739A4208D892B2FFF76AFF044628466B
:103DD000FFF7A8FF204638BD4FF6FF72F4E700BF9B
:103DE0000803002010B54FF4947300FB03F305485B
:103DF0001C1810331844FFF78AFF2046FFF792FF84
:103E000010BD00BF0803002070B5054601F0EEFCB0
:103E100018B9002343B9002070BD01F0EFFC08B9C8
:103E20000123F7E70023F5E74FF4947405FB04F44E
:103E30001834254B1C4404342046FFF7D8FE08B93B
:103E40000020E9E7204B4FF4947202FB0533997888
:103E5000002001F001FF08B90020DDE74FF494765F
:103E600005FB06F6E836184B1E4440223146204634
:103E7000FFF716FF0446E0B113494FF4947303FBB8
:103E80000511034632468978002001F005FF08B18C
:103E90002046C1E7CD220D490D4807F063FF4FF0E2
:103EA000E023D3F8F03D13F0010F00D000BE002056
:103EB000B2E7054B4FF4947202FB0533997800206A
:103EC00001F0DAFE0020A7E70803002090F30008C5
:103ED000F0E8000870B505464FF4947400FB04F454
:103EE00018340D4B1C4404344FF6FE739A420BD821
:103EF00092B22046FFF701FF06462046FFF777FE05
:103F00003F2804D8304670BD4FF6FF72F1E72846CF
:103F1000FFF77AFFF6E700BF0803002070B582B014
:103F20004FF494720021194809F092FB0025184BB8
:103F30001D700DB102B070BD144E4FF4947405FBAA
:103F400004F43319FF225A714FF4E1329A600022CF
:103F50001A735A730821997304F1280104F11000AF
:103F600000920123402231443044FFF72AFE04F13D
:103F7000680104F1180030440123009340223144C9
:103F80000430FFF71EFE0135EDB2D2E70803002032
:103F9000040300200120704738B5002404B138BD67
:103FA00025464FF4947304FB03F319495818002273
:103FB000CA500271174B1B7813F0010F12D0154B2A
:103FC0001B7813F0020F17D04FF4947303FB05F026
:103FD00018300F4B184401210430FFF79DFE0134C7
:103FE000E4B2DBE74FF4947304FB03F310330846A9
:103FF0001844FFF78CFEE2E74FF4947005FB00F0E5
:104000001830034B18440430FFF781FEDCE700BF93
:104010000803002004030020F0B583B04B79022B85
:104020007BD105468B79022B7BD100237BB14FF4EA
:104030009A723D493D4807F095FE4FF0E023D3F8D2
:10404000F03D13F0010F00D000BE002466E03848B8
:104050004FF4947404FB0300807810B10133DBB299
:10406000E4E704FB03F332481E188C78C4540F783D
:104070000F4409247B78242B06D1944204D83B7842
:104080001C44A4B21F44F5E7052B09D07B78042B10
:1040900002D17B790A2B1FD03046FFF743FE3DE06B
:1040A0003946284601F048FD30B1BB7873703B7843
:1040B0001C44A4B21F44E9E74FF4A3721A491B48F9
:1040C00007F050FE4FF0E023D3F8F03D13F0010F5E
:1040D00000D000BE002421E039780C44A4B2B31C07
:1040E0000193F31C009302231A463944284601F039
:1040F00061FD10B10E34A4B2CEE740F255120A4968
:104100000A4807F02FFE4FF0E023D3F8F03D13F0FC
:10411000010F00D000BE002400E00024204603B0C0
:10412000F0BD0024FAE700BF84F30008F0E80008BF
:1041300008030020F8B5137803F06003202B40F04B
:10414000818006461446454F0025002D7CD13A78E3
:10415000A3889A4204D00135EDB207F59477F4E7CD
:104160006378203B032B71D8DFE803F0021E2E5545
:10417000012903D003290DD0012064E0384808F05C
:10418000C3F9072307F108022146304600F0E8FF93
:10419000012058E0334B002B5AD007F10801284684
:1041A000AFF3008001204EE0012901D001204AE058
:1041B0002D4808F0A9F9072307F1080221463046E7
:1041C00000F0CEFF01203EE0012903D0032907D0F3
:1041D000012038E02146304600F0AEFF012032E0F9
:1041E000638813F00104C3F340063B710CBF012147
:1041F000002107F11C00FFF78FFD324621461B48C6
:1042000007F0B0FD1A4B2BB332462146284606F084
:1042100099FE012017E0012903D0032907D00120CE
:1042200011E02146304600F087FF01200BE01148E5
:1042300008F06AF9104B7BB161882846AFF3008023
:10424000012000E00020F8BD0020FCE70020FAE794
:104250000120F8E70120F6E70120F4E70803002039
:104260007CE900080000000090E90008A4E90008CB
:1042700045AF0008D4E90008000000002DE9F04730
:1042800007460E469946002454B1BCB9EB78B342B8
:1042900024D0AB78B34255D001242046BDE8F08746
:1042A0004FF494733D4D03FB0455EB78B342ECD0CF
:1042B000AB78B342E9D00134E4B2E5E740F2B5129D
:1042C0003749384807F04EFD4FF0E023D3F8F03D72
:1042D00013F0010F00D000BE0024DEE705F1100A44
:1042E0001FFA89F205F1A8015046FFF706FD2E4B93
:1042F000D3B16B79FF2B17D04FF0000801E008F124
:104300000108C84510D26A7905EB080393F8A83074
:104310009A42F4D15046FFF77EFC0028EFD169792C
:104320002046AFF30080EAE7204B1BB15046FFF771
:1043300072FC18B12846FFF7F5FCAAE7204606F004
:1043400002FEF7E71A4B13B12046AFF30080204678
:10435000FFF75AFD08B101249FE705F11C00FFF7A4
:1043600046FCB0B9B9F1000F15D019F03F0F01D0DC
:10437000012492E7A978384601F06EFC044608B99A
:1043800001248AE700231A46A978384601F084FC04
:1043900083E7012481E701247FE700BF08030020B1
:1043A00074F30008F0E800080000000047AF0008C0
:1043B00000000000002380F830304363836380F8FE
:1043C0003C3080F83D3080F83E30704708B58B684F
:1043D0008A6B9B1A8B62032381F830300D2301F125
:1043E000200291F82E1001F057FC08BD10B50B46C5
:1043F000002201E0013292B20488944208D9446854
:1044000004EBC20154F832409C42F3D1486806E004
:10441000034C044A0B21204608F0DCF9204610BD6D
:1044200030040020E4E9000808B5C28A816839B97F
:104430000AB9002008BD184808F066F80220F9E71C
:1044400053BA9BB290F80FC0BCF1280F07D0BCF153
:104450002A0F0ED0AAB1994218D30020EAE790F8AB
:104460000CE05FEADE1EF2D10C4808F04DF80220A5
:10447000E0E7007BC009EDD0094808F045F80220CC
:10448000D8E7084808F040F80120D3E7064808F0CC
:104490003BF80220CEE700BFECE900081CEA000868
:1044A00038EA000854EA000894EA0008044880F852
:1044B0003C1080F83D2080F83E300120704700BF5E
:1044C0003C24002070B58CB0054616461C4691F879
:1044D00000C0BCF1250F00F28281DFE81CF026004D
:1044E000800180013901800180018001800180010B
:1044F00080018001800180018001800180018001B4
:104500008001CD0080018001800180018001800157
:1045100080010E013A008001800158008001800175
:10452000800180019A008001720006F047FD00289A
:1045300040F05A81B14B93F83C3013B14FF0FF3447
:104540004FE13A2202212846FFF7B0FF4FF0FF3437
:1045500047E1AB4B002B00F049810979C1F34003DF
:1045600001F00102090906F047FD002840F04081F2
:10457000A24B93F83C3013B14FF0FF3431E13A22B3
:1045800002212846FFF792FF4FF0FF3429E19D4BAF
:10459000002B00F02F814A790979AFF300800028C1
:1045A00040F02A81954B93F83C3013B14FF0FF3423
:1045B00017E13A2202212846FFF778FF4FF0FF3437
:1045C0000FE10DF1060202A906F008FDBDF8062074
:1045D000029B03B172B9894B93F83C3013B14FF091
:1045E000FF34FEE03A2202212846FFF75FFF4FF03A
:1045F000FF34F6E0013B1BBA039312BA0492072C76
:1046000005D903AB03CB306071600824E9E00024D6
:10461000E7E0002303930493059308238DF80F30FC
:1046200002238DF814300DF1060202A906F0D6FC23
:10463000029B13B1BDF8062072B9704B93F83C3061
:1046400013B14FF0FF34CCE03A2202212846FFF7A5
:104650002DFF4FF0FF34C4E01BBA049352BAADF8FB
:1046600016200B2C06D903AB07CB30607160B2600B
:104670000C24B6E00024B4E02422002103A808F0B2
:10468000E7FF9DF80D3043F080038DF80D300222D6
:104690008DF80E209DF80F3062F303038DF80F3074
:1046A0001F238DF810304FF02033059306930793A6
:1046B000089309930A930B930BAB07AA05A9284605
:1046C00006F042FC232C16D903ADB4460BAE2C46A3
:1046D0000FCCCCF80000CCF80410CCF80820CCF8B3
:1046E0000C3025460CF1100CB442F0D12068CCF807
:1046F0000000242475E0002473E003238DF80C30BF
:1047000000238DF80D309DF80E2063F306028DF81E
:104710000E20D2B263F3C7128DF80E208DF80F3041
:10472000394B8BB106F092FC034683F00103DBB2F8
:104730009DF80E2063F3C7128DF80E20032C05D9C7
:10474000039B336004244CE00123EEE7002448E09F
:1047500000230393049305930693ADF81C309DF852
:104760000C30702262F306038DF80C30DBB243F09C
:1047700080038DF80C300A238DF813301F4B93F80B
:104780003C109DF80E2061F303028DF80E2093F883
:104790003D208DF8182093F83E308DF81930112CFB
:1047A0001BD90DF10C0CBCE80F0030607160B260D9
:1047B000F360BCF800303382144B63B1A2B23146CF
:1047C0002846AFF30080044600231A4619462846BF
:1047D000FFF76CFE05E01224F6E7002401E04FF03D
:1047E000FF3420460CB070BD0024FAE70024F8E73F
:1047F0000024F6E70024F4E70024F2E73C2400203C
:10480000F9AF0008000000004DB0000800000000F3
:1048100038B505460C4681F82C208B688A6B9B1AAC
:104820008B62022381F8303091F83C3063B1A36889
:104830004BB1A36A3BB1237BDB090BD094F82E105C
:10484000284601F09DFA38BD20220521607BFFF744
:104850002DFEECE794F82F10284601F091FAF2E7CC
:1048600030B587B005460C46CA8A2AB153BA9BB206
:104870008A68B2FBF3F292B2D4F8111009BAA06BB5
:10488000B0FBF2FCA3681B1AB3F5005F28BF4FF41E
:1048900000530093214B02FB1C026144607B06F035
:1048A000B5FB002812DB00BB94F82E3000210391E9
:1048B000049105918DF80C5007228DF80D208DF88C
:1048C000103003A801F036F807B030BD144807F0E7
:1048D0001BFE00233A220221607BFFF7E7FD012245
:1048E00021462846FFF794FFEEE783B20B4A94F87F
:1048F0002E10284601F0D0F90028E5D140F2773299
:104900000849094807F02EFA4FF0E023D3F8F03DAC
:1049100013F0010FD8D000BED6E700BF3C04002042
:10492000E8EA0008A8F30008F0E8000838B50546F2
:104930000C46194B1BB1487B06F088FB80B1A3687D
:10494000A26B9B1AB3F5005F28BF4FF400539BB2D4
:10495000124A94F82F10284601F09EF960B138BD34
:10496000002327220721607BFFF7A0FD01222146BB
:104970002846FFF74DFFF2E740F292320849094816
:1049800007F0F0F94FF0E023D3F8F03D13F0010FFA
:10499000E5D000BEE3E700BF4DB000083C040020B6
:1049A000B8F30008F0E80008F0B587B007460C46F9
:1049B0001646CD8A2DB16BBA9BB28D68B5FBF3F567
:1049C000ADB2D4F8111009BAA26BB2FBF5F00096A3
:1049D000254B05FB10220144607B06F039FB011ECC
:1049E00017DBB14231D2761A002924DC94F82F303B
:1049F00000210391049105918DF80C7007228DF828
:104A00000D208DF81030059603A800F093FF07B035
:104A1000F0BD164807F078FDA36B3344A363002371
:104A20003A220221607BFFF741FD012221463846F0
:104A3000FFF7EEFEEBE7A36B13FA81F3A3630A48DB
:104A40003246014408F0EAFDD0E7A36B3344A36388
:104A5000626B934203D3022384F83030D7E72146B8
:104A60003846FFF763FFD2E73C0400200CEB000858
:104A700008B540220021024808F0EAFD08BD00BF49
:104A80003C24002008B540220021024808F0E0FD47
:104A900008BD00BF3C2400204B79082B58D110B52D
:104AA00082B004468B79062B54D1CB79502B54D14C
:104AB000162A1DD98A782A4B83F82D20087803F10D
:104AC0002E0201922F33009302231A4601442046FE
:104AD00001F070F8E0B1224A002382F830301F2341
:104AE00092F82F10204601F0D7F808B3172032E0D3
:104AF0004FF48C721B491C4807F034F94FF0E02347
:104B0000D3F8F03D13F0010F00D000BE002022E0EA
:104B10004FF48F721349144807F024F94FF0E02343
:104B2000D3F8F03D13F0010F00D000BE002012E0DA
:104B300040F221120B490C4807F014F94FF0E02322
:104B4000D3F8F03D13F0010F00D000BE172002E0B3
:104B500000207047002002B010BD0020FBE700BF1E
:104B60003C240020F4F30008F0E8000830B583B0DE
:104B7000012940F0A08005461446137803F07F0217
:104B8000022A16D003F06003202B40F0988063784F
:104B9000FE2B6FD0FF2B40F094804C4807F0B4FC04
:104BA0006388002B40F08F80E388002B59D00024CD
:104BB00082E06278012AE5D16288002AE2D1A188E8
:104BC000C9B2434B93F83030042B2ED0404A92F8B0
:104BD0002E208A422CD03E4A92F82F408C4229D176
:104BE00043BB214601F0BEF820BB2146284601F018
:104BF00013F9F8B9364A002382F830301F2392F8AF
:104C00002F10284601F048F8044698B940F25B128C
:104C10003049314807F0A6F84FF0E023D3F8F03DD3
:104C200013F0010F48D000BE46E001F0A9F801E002
:104C3000022B01D001243FE02549FFF7C7FB0446C2
:104C40000028F7D14FF4A8722249234807F08AF8C8
:104C50004FF0E023D3F8F03D13F0010F2CD000BE4D
:104C60002AE01B48FFF7A6FB2146284600F064FA1D
:104C7000012421E0194807F047FC63886BB9E388F9
:104C8000012B0AD18DF80730154B1BB1AFF3008013
:104C90008DF807009DF807300BB900240CE0013BAC
:104CA0008DF8073001230DF107022146284600F058
:104CB00057FA012400E00124204603B030BD00244F
:104CC000FAE70024F8E70024F6E700BF30EB00081D
:104CD0003C240020DCF30008F0E8000844EB000866
:104CE0000000000070B506461D469D4C94F830202B
:104CF000012A00F0E980032A00F04C81002A40F0EC
:104D0000538194F82F308B4240F0C5811F2D03D181
:104D10002268944B9A4212D0934807F0F5FB904CCE
:104D2000042384F8303094F82E10304601F028F82F
:104D300094F82F10304601F023F800243AE1884C13
:104D4000657BE17B8948FFF751FB0246294688488D
:104D500007F008F8874B2362636863620022A2624F
:104D600084F82C20012384F83030A3686363A263A5
:104D7000E27B282A13D02A2A11D0002B4BD0784A64
:104D8000127BD20947D1B3F5005F28D97A4807F0E2
:104D9000BBFB012272493046FFF73AFD04E170483F
:104DA000FFF742FB024658B96D4B9B6893B16C4BC1
:104DB000DB7B282B09D06A493046FFF7B7FDF3E0CB
:104DC00067493046FFF724FDEEE065493046FFF7BE
:104DD00047FDE9E0624B022283F83020E4E09BB219
:104DE000664A5F4991F82F10304600F055FF04469F
:104DF000002840F0D98040F2D9126149614806F09C
:104E0000B1FF4FF0E023D3F8F03D13F0010F00F0B5
:104E1000D18000BECEE052484FF40053574A00F113
:104E20000F01407BFFF74EFB002808DB28BB4C4BF3
:104E30009B68E3B94A4B022283F83020B4E0484B28
:104E400093F83C3053B10028F0DA4F4807F05CFB90
:104E5000012243493046FFF7DBFCA5E04048838E42
:104E6000464A00F10F01407B06F0F5F8EBE701221E
:104E70003B493046FFF7CCFC96E0394B9B682BB999
:104E8000012237493046FFF7C3FC8DE0834228BF3B
:104E9000034633494B639BB2384A91F82E10304693
:104EA00000F0FAFE044600287ED14FF40172344926
:104EB000344806F057FF4FF0E023D3F8F03D13F0ED
:104EC000010F77D000BE75E0254C617B2F4806F0BE
:104ED00049FFE37B282B12D02A2B1FD0204B9A6B43
:104EE0002A449A631B7BDB091ED01D4B9A6B5B6BBC
:104EF0009A422CD31A4B022283F8302054E0A36B41
:104F00002B44A363626B934203D3022284F83020C4
:104F10004AE013493046FFF7A3FC45E02A46104912
:104F20003046FFF741FD3FE00D48838E134A00F104
:104F30000F01407B06F08FF80028D6DA144807F0FE
:104F4000E3FA012206493046FFF762FCCDE74FF055
:104F5000E023D3F8F03D13F0010F25D000BE23E08D
:104F60003C2400205553424358EB000800F400084D
:104F700074EB00085553425394EB00083C040020A6
:104F8000CCF30008F0E80008C8EB0008F0EB0008DC
:104F900008EC0008414B93F82E308B4201D10D2DC7
:104FA0000AD03F4807F0B0FA3C4B93F83030022B60
:104FB00041D00124204670BD384C94F82C20617BF0
:104FC000384806F0CFFEE37B282B0AD02A2B2AD0C4
:104FD000354B63B1314B03F10F01587BAFF30080C8
:104FE00005E0324B1BB12D4B587BAFF300802B4AB1
:104FF000002382F830301F2392F82F10304600F043
:105000004BFE04460028CFD140F25E2228492948B1
:1050100006F0A8FE4FF0E023D3F8F03D13F0010FA7
:10502000C8D000BEC6E7244B002BE0D01B4B587BFA
:10503000AFF30080DBE7194B93F82E10304600F0F9
:10504000EBFE04460028B5D1144B9A689B6B9A423C
:1050500003D9124B1B7BDB0915D110493046FFF7F2
:10506000B5F904460028A5D140F27522104911482F
:1050700006F078FE4FF0E023D3F8F03D13F0010F77
:1050800098D000BE96E7054B93F82E10304600F0FE
:1050900077FE01248EE701248CE700BF3C2400202A
:1050A00044EC000824EC00080000000000000000B0
:1050B000CCF30008F0E800080000000008B591F902
:1050C0000030002B05DB802100231A4600F0E4FDB0
:1050D00008BD0021F8E70000F8B50746134B9E898C
:1050E000DD89741BA4B2402C28BF402493F9003002
:1050F000002B08DB0021AE4213D00D4A2346384670
:1051000000F0CAFDF8BDAE4209D0084B9968402CAA
:1051100009D82246064807F0ABFA8021EBE7802148
:10512000E9E70022EAE70020ECE700BFBC2400200A
:105130007C2400207047000008B586460B46074ACD
:10514000944608684968ACE8030000219160D18169
:10515000918119467046FFF7B1FF08BDBC240020BD
:1051600038B505468C46264CA64608684968AEE820
:105170000300A2600021E181BCF806108B4228BF29
:105180000B46A381BCF8061029B303B132B12846FF
:10519000FFF7A2FF044680B1204638BD77221949A7
:1051A000194806F0DFFD4FF0E023D3F8F03D13F08F
:1051B000010F00D000BE0024EEE77D221149124805
:1051C00006F0D0FD4FF0E023D3F8F03D13F0010FCF
:1051D000E2D000BEE0E761462846FFF76FFF0446D5
:1051E0000028D9D180220749074806F0BBFD4FF0BF
:1051F000E023D3F8F03D13F0010FCDD000BECBE794
:10520000BC24002078F40008F0E80008034B0022DA
:105210001A605A609A60DA601A617047BC240020F4
:10522000014B1861704700BFBC2400200146054BAC
:105230001A460068496803C200229A60DA819A819E
:10524000704700BFBC24002070B505461C46424B89
:105250001B78DB09B3EBD11F1CD07CB1A7223F49DF
:105260003F4806F07FFD4FF0E023D3F8F03D13F008
:10527000010F00D000BE0024204670BD364C2146F0
:10528000FFF758FF23691BB12246032128469847A0
:105290000124F1E7304B93F90030002B0DDB2E4B4E
:1052A0009868002855D02F4E2246314607F0E0F985
:1052B00002222146304601F063FA274AD38913FAC5
:1052C00084F39BB2D381916821449160D288934248
:1052D00001D03F2C29D8204B186938B100F05EFA74
:1052E0001D4A1369022128469847A0B11A49284649
:1052F000FFF7E4FE04460028BED1D0221749184823
:1053000006F030FD4FF0E023D3F8F03D13F0010F2D
:10531000B2D000BEB0E700212846FEF74FF9802149
:105320002846FEF74BF90124A6E72846FFF7D4FEEE
:1053300004460028A0D1D8220849094806F012FDE9
:105340004FF0E023D3F8F03D13F0010F94D000BEEE
:1053500092E7002490E700BFBC24002060F400081E
:10536000F0E800087C2400200020704738B505468E
:10537000002408E0D21A1A4B03EB4213DB682846DC
:1053800098470134E4B2174B1B782246591CA142BE
:1053900015DBA342EED9144B1B6813EB4413EDD17C
:1053A00040F216221149124806F0DCFC4FF0E023CF
:1053B000D3F8F03D13F0010F10D000BE0EE00D4CFD
:1053C0002C220021204608F043F94FF0FF336360A0
:1053D000A360E36023616361A361E36138BD00BF43
:1053E00064F50008942500209825002010F5000899
:1053F000F0E80008A025002008B520B1044B18787B
:10540000FDF76CFF08BD024B1878FDF773FFF9E755
:105410001C00002070B506460D46002404E0315DF6
:10542000044806F09FFC0134AC42F8D3024807F070
:105430006BF870BD2CED000818EA000808B5FFF7FE
:1054400095FFFFF7E3FE08BD70B505460C4616460E
:105450004869FFF7E5FE2168044806F083FC6369AC
:10546000324601212846984770BD00BF34ED000840
:105470002DE9F04F83B08246481EC0B205F0CCFB48
:1054800018B102464378022B11D040F2C732664968
:10549000664806F067FC4FF0E023D3F8F03D13F0C8
:1054A000010F00D000BE002003B0BDE8F08FC0792E
:1054B000C0F340155E490C7865F304140C70C0F31A
:1054C0008010E4B260F345140C7002F109085188B1
:1054D0000A44009201937FE098F803B098F80030F6
:1054E000984483E040F2E2324F49504806F03AFCDB
:1054F0004FF0E023D3F8F03D13F0010F00D000BED1
:105500000020D1E7A9EB03034A4D05EB43152B69B6
:105510003A46414650469847082801D987421ED24C
:105520000134E4B2444B1B78A1465A1CA2424EDB24
:10553000A342E7D9414B1D6815EB4415E7D140F272
:10554000EB323949394806F00DFC4FF0E023D3F82F
:10555000F03D13F0010F00D000BE0020A4E7064686
:105560002968374806F0FEFBBBF1010F11D000227D
:10557000934525D998F802301344DBB22C491944DD
:105580000979FF290CD12A490B441C710132D2B28E
:10559000EEE72A692B4B9A42E9D1DDF804B0E6E741
:1055A00040F20A422049214806F0DCFB4FF0E0239C
:1055B000D3F8F03D13F0010F00D000BE002073E7D8
:1055C000234632464146204801F0BAF8B0441A4B0F
:1055D0001B780133994514DC009B984521D298F83B
:1055E00001300B2B3FF478AF4FF0010B98F80130EE
:1055F000042B7FF477AF009BA3EB0807BFB2002416
:1056000090E740F219420849084806F0ABFB4FF01A
:10561000E023D3F8F03D13F0010F00D000BE0020CE
:1056200042E7012040E700BFE4F40008F0E800088A
:10563000A025002064F5000894250020982500206E
:105640004CED000819400008B42500207047704751
:1056500000207047002070470020704770B5064654
:105660000C4649880A0ACDB2531E0E2B7CD8DFE8BF
:1056700003F008335E7B7B6E337B7B7B7B7B7B7BAA
:1056800025003E4806F040FF05F0C2FA024628B168
:10569000122321463046FFF763FD66E040F22B42BD
:1056A0003749384806F05EFB4FF0E023D3F8F03D71
:1056B00013F0010F00D000BE002056E0324806F083
:1056C00023FFFFF7C5FF024600284FD0438821463D
:1056D0003046FFF745FD48E0022A0ED02B4806F081
:1056E00013FF2846FFF7B8FF0246002840D0538832
:1056F00021463046FFF734FD37E02946244806F0BE
:1057000031FB284605F088FA02460028EFD140F226
:1057100052421B491B4806F025FB4FF0E023D3F80B
:10572000F03D13F0010F00D000BE00201DE029461F
:10573000184806F017FBA188284605F071FA0246C2
:10574000C0B1037821463046FFF70AFD0DE012484C
:1057500006F0DAFEFFF77EFF024668B103782146C5
:105760003046FFF7FDFC00E0002070BD0020FCE7A4
:105770000020FAE70020F8E70020F6E75CED0008DB
:10578000CCF40008F0E8000868ED000888ED000897
:1057900070ED0008A4ED0008B4ED000808B5002382
:1057A00008E0891A0D4A02EB41125169814210D07A
:1057B0000133DBB20A4A1278194602F1010C9C450A
:1057C0000BDB9A42EDD9074A126812EB4312ECD177
:1057D000EEE71168044806F0C5FA08BD64F5000854
:1057E0009425002098250020C8ED0008024B587829
:1057F000003818BF01207047A0250020024B187800
:10580000C0F38000704700BFA0250020024B18782D
:10581000FF3818BF012070471C000020F8B506466D
:10582000FFF7F4FF074608B13846F8BD00223146BD
:105830002F4806F097FA2C212E4806F093FA0C21F7
:105840002D4806F08FFA0C212C4806F08BFA142113
:105850002B4806F087FA2C2200212A4807F0F8FE90
:10586000294B00221A70294C2046FEF750FA043CBE
:10587000274B1C60274B23B12748AFF30080274BF1
:10588000186000240DE0D21A254D05EB42156B6817
:10589000A3B12968234806F065FA6B68984701347C
:1058A000E4B21D4B1B782246591CA14215DBA342D2
:1058B000E9D91A4B1D6815EB4415E8D14FF4F17284
:1058C00019491A4806F04EFA4FF0E023D3F8F03D9C
:1058D00013F0010FA8D000BEA6E7154B1E7030468E
:1058E000FDF72CFD3046FDF7F9FC01279CE700BFD2
:1058F000E0ED000810EE000830EE00084CEE000865
:1059000068EE0008A02500209C2500201000002043
:10591000D0240020000000009425002098250020BD
:1059200064F500088CEE000834F50008F0E8000883
:105930001C000020F0B585B005460E464378023BBA
:10594000042B15D8DFE813F005005C002D003800AB
:10595000D100714B1A7822F001021A701A7822F0E5
:1059600002021A70002159701A7861F382021A70CB
:105970006A4B1F6816B93B68002098472946381DB6
:10598000FEF798F9044616B93B6801209847002CA9
:1059900000F0B180324669782878FFF757FE05B0ED
:1059A000F0BD5D4B1B7813F0010FF8D05A4A137805
:1059B00043F004031370DBE7574B1B7813F0010F20
:1059C000EDD0554A137823F004031370D0E7D21AB0
:1059D000534B03EB4213DB6913B16968287898478E
:1059E0000134E4B24F4B1B782246591CA14209DB1B
:1059F000A342ECD94C4B1B6813EB4413EBD1EFE7FC
:105A00000024EFE7444B1B7813F0040F25D0424AE3
:105A1000137823F00403137000230193029303937C
:105A20002B788DF8043005238DF805303B4B1F682B
:105A300016B93B680020984701A9381DFEF73AF9CE
:105A4000044616B93B68012098477CB332469DF85E
:105A500005109DF80400FFF7F9FD2F4BDB7813F0DC
:105A6000010F9CD000230193029303932B788DF8B0
:105A7000043003238DF805306B680293274B1D68B3
:105A800016B92B680020984701A9281DFEF712F9C6
:105A9000044616B92B6801209847B4B132469DF8E8
:105AA00005109DF80400FFF7D1FD78E74FF4AD72C3
:105AB0001E491F4806F056F94FF0E023D3F8F03D99
:105AC00013F0010FC9D000BEC7E74FF4AD721749FC
:105AD000174806F047F94FF0E023D3F8F03D13F0F4
