:020000040800F2
:100000000000012095970008690500086D050008AB
:10001000810500088505000889050008000000002A
:100020000000000000000000000000008D05000836
:1000300091050008000000009505000899050008DA
:10004000E5970008E5970008E5970008E5970008A0
:10005000E5970008E5970008E5970008E597000890
:10006000E5970008E5970008E5970008E597000880
:10007000E5970008E5970008E5970008E597000870
:10008000E5970008E59700089D05000800000000BE
:10009000000000000000000000000000E5970008DC
:1000A000E5970008E5970008E5970008E597000840
:1000B000E5970008E5970008E5970008E597000830
:1000C000E5970008E5970008E5970008E597000820
:1000D000E5970008E5970008E59700080000000094
:1000E000E5970008E5970008E59700080000000084
:1000F000000000000000000000000000E59700087C
:1001000000000000A9050008B5050008E5970008F3
:1001100000000000000000000000000000000000DF
:10012000C1050008E5970008E5970008E597000875
:10013000E59700080000000000000000000000003B
:10014000000000000000000000000000CD050008D5
:10015000E5970008E5970008E5970008E59700088F
:10016000E5970008E5970008000000000000000087
:10017000000000000000000000000000000000007F
:1001800000000000E59700080000000000000000EB
:04019000E5970008E7
:1001A000034613F8012B002AFBD1181A01387047B7
:1001B00001F0FF01102A2BDB10F0070F08D010F818
:1001C000013B013A8B422DD010F0070F42B3F6D11C
:1001D000F0B441EA012141EA014122F007047FF035
:1001E00000070023F0E80256083C85EA010586EA8C
:1001F000010685FA47F5A3FA87F586FA47F6A5FAC8
:1002000087F68EB9EED1F0BC01F0FF0102F00702D3
:1002100032B110F8013B013A83EA010313B1F8D17E
:100220000020704701387047002D06BF354603385F
:10023000073815F0010F07D1013015F4807F02BF98
:10024000013015F4C03F0130F0BC0138704700BFE9
:1002500053B94AB9002908BF00281CBF4FF0FF312D
:100260004FF0FF3000F00CB8ADF1080C6DE904CE92
:1002700009F058FFDDF804E0DDE9022304B070471F
:10028000704700BF0348044B834202D0034B03B1C5
:10029000184770478C0000208C00002000000000F0
:1002A0000548064B1B1AD90F01EBA301491002D0D8
:1002B000034B03B1184770478C0000208C000020CE
:1002C0000000000010B5064C237843B9FFF7DAFFB1
:1002D000044B13B10448AFF300800123237010BD19
:1002E0009000002000000000E0A3000808B5054BC6
:1002F0001BB105490548AFF30080BDE80840FFF792
:10030000CFBF00BF0000000094000020E0A3000861
:1003100008B572B6064E074D642428464FF40051C6
:1003200000F0EEFD306804FA00F001F071F8F4E737
:10033000AC0000200008024010B5002394B0CDE9C5
:100340000B33CDE90333CDE90533224901930D93F6
:100350000793086C204A40F080500864096C01F053
:100360008051019101990293136823F4404343F4AF
:1003700000431360136803F44043029302244FF4D4
:10038000800305204FF480311922CDE90E434FF44C
:10039000A873CDE90801CDE91023029801210422B8
:1003A000072308A8CDE912230A9100F039F978B99A
:1003B0000F210346CDE903144FF4805203A82146D0
:1003C000CDE90532079300F041FB08B914B010BD28
:1003D000FFF79EFF003802400070004008B500F0B3
:1003E000EBFFFFF7A9FF00F011F808F01DFC04F087
:1003F000EBFB04F0C3FC04F033FD05F053FA05F009
:10040000CDFA00F057F808F029FCFEE710B50022FD
:100410008CB0CDE90622CDE90822244B01920A9244
:10042000196B234C41F004011963196B01F00401AD
:10043000019101990292196B41F080011963196BC6
:1004400001F08001029102990392196B41F00101C0
:100450001963196B01F00101039103990492196B5F
:1004600041F008011963196B01F008010491049926
:100470000592196B41F0020119631B6B03F0020333
:10048000059320464FF40051059B00F035FD4FF4D5
:1004900000520123CDE9062306A9002200232046AD
:1004A000CDE9082300F038FC0CB010BD0038024044
:1004B0000008024010B50B480B4C00234FF4E1310B
:1004C0000C22C0E90041C0E90233C0E90432C0E9AE
:1004D000063301F081FA00B910BDBDE81040FFF706
:1004E00017BF00BFB0000020001001400000000056
:1004F00010B51B4A016888B000239142CDE9023350
:10050000CDE90433069301D008B010BD02F5943252
:100510000093506C40F010005064506C00F01000DC
:10052000009000980193136B0E4843F0020313638D
:10053000136B9FED097B03F0020301930322072352
:1005400002A98DED027BCDE90523019C00F0E4FBBF
:1005500008B010BDAFF30080C00000000200000032
:100560000010014000040240FEE700BF08B5034B45
:1005700001221A60FFF7CCFEFEE700BFAC000020AE
:10058000FEE700BFFEE700BFFEE700BF704700BF09
:10059000704700BF704700BF00F028BF014804F05B
:1005A00007BE00BFB0240020014808F013BA00BF06
:1005B00060250020014801F033B800BF1825002055
:1005C000014800F089BD00BF4C240020002001F04C
:1005D000E5BD00BF82B00C4B002100915A6C42F483
:1005E00080425A645A6C02F480420092009A01914F
:1005F0001A6C42F080521A641B6C03F08053019312
:10060000019B02B0704700BF00380240034AD2F895
:10061000883043F47003C2F88830704700ED00E082
:10062000002800F0D8812DE9F0410368DD0782B091
:1006300004462FD59D498A6802F00C02042A00F076
:10064000EC808A6802F00C02082A00F0E2806368FD
:10065000B3F5803F00F0EB80B3F5A02F00F073817D
:10066000924D2A6822F480322A602A6822F480227D
:100670002A60002B40F0E08000F0C4FE064605E052
:1006800000F0C0FE801B642800F200812B689F03ED
:10069000F6D423689D0728D5844A916811F00C0F81
:1006A00000F09B80916801F00C01082900F0918016
:1006B000E368002B00F00C817D4B7C4E01221A6018
:1006C00000F0A0FE054605E000F09CFE401B02285D
:1006D00000F2DC8033689F07F6D53368226923F087
:1006E000F80343EAC203336023681A075CD45D074A
:1006F0003AD56E4A136C13F0805340F08880019312
:10070000136C43F080531364136C03F08053019314
:10071000019B0125674E3368D80540F1A780A36887
:10072000012B00F0B780052B00F01D815F4E326F6A
:1007300022F001023267326F22F004023267002B8E
:1007400040F0AD8000F05EFE41F28838074605E0DB
:1007500000F058FEC01B404500F29880336F9B07A5
:10076000F6D4002D40F0F980A369CBB14F4DAA68B3
:1007700002F00C02082A00F0BC80022B4C4B4FF018
:1007800000021A6600F0F98000F03CFE044604E026
:1007900000F038FE001B022878D82B689B01F7D4A4
:1007A000002002B0BDE8F0816369FBB1404B3F4ED1
:1007B0000122C3F8802E00F025FE054604E000F07B
:1007C00021FE401B022861D8736F9B07F7D5236871
:1007D0008DE7526851023FF56BAF344A12689207B9
:1007E00038D5E268012A35D00120DAE7304A2F4EA9
:1007F000C2F8803E00F006FE054604E000F002FE6E
:10080000401B022842D8736F9F07F7D4DFE700250B
:1008100080E74A6851027FF51AAF244A12689203B2
:100820007FF538AF6268002A7FF434AFDCE71F4AF7
:10083000136843F48033136000F0E4FD1B4E05465B
:1008400004E000F0DFFD401B64281FD833689B03E1
:10085000F7D51EE7154920690A6822F0F80242EA36
:10086000C0020A601A077FF542AF9DE7336843F480
:100870008073336000F0C6FD07463368D9053FF545
:100880004EAF00F0BFFDC01B0228F6D9032002B016
:10089000BDE8F081054A136F43F00103136700F0D0
:1008A000B1FD024F064641F288380AE000380240A6
:1008B000000047420070004000F0A4FD801B40454E
:1008C000E4D83B6F9A07F7D5002D3FF44DAF44E0D5
:1008D000424A434E136000F095FD054604E000F0E7
:1008E00091FD401B0228D1D833689907F7D42368BB
:1008F000FBE6012B3FF478AF6B68E26903F48001FB
:1009000091427FF471AF226A03F03F0191427FF47C
:100910006BAF616A47F6C0721A40B2EB811F7FF479
:1009200063AFA26A520803F44031013AB1EB024FBF
:100930007FF45AAFE26A03F07063B3EB026F14BF47
:10094000012000202DE7264B1A6842F480221A600D
:100950001A6842F480321A606EE7214A136C23F061
:100960008053136400E71E4B1A6F42F004021A67AB
:100970001A6F42F001021A6791E700F043FD064644
:1009800005E000F03FFD801B02283FF67FAF2B689B
:100990009901F6D4D4E90731626A0B4343EA821322
:1009A000D4E90A2052080D4943EA0063013A43EAB8
:1009B000024301226B600A6600F024FD084D0446E4
:1009C00005E000F01FFD001B02283FF65FAF2B681B
:1009D0009A01F6D5E4E60120704700BF00004742C7
:1009E00000380240164908B58B6803F00C03042B4D
:1009F0001BD0082B01D0134808BD4A684B684968D2
:100A000013F4800302F03F0211D10E48C1F38811A4
:100A1000A1FB0001FFF71CFC094B5B68C3F301431A
:100A200001335B00B0FBF3F008BD074808BD064882
:100A3000C1F388110023A1FB0001FFF709FCEBE7DC
:100A4000003802400024F40040787D01002800F0C6
:100A50008780484A136803F007038B422DE9F04171
:100A60000D46044609D2CBB21370136803F0070396
:100A70008B4202D00120BDE8F0812368980714D58D
:100A8000590704D53C498A6842F4E0528A601A0743
:100A900004D539498A6842F460428A603649A068C0
:100AA0008A6822F0F00202438A60DF0721D562687B
:100AB000012A57D0931E012B2F4B1B684DD9990744
:100AC000D8D52D4EB36823F003031343B36000F071
:100AD00099FC41F28838074604E000F093FCC01B03
:100AE000404544D8B368626803F00C03B3EB820F4F
:100AF000F3D1204A136803F00703AB4206D9EBB2E7
:100B00001370136803F00703AB42B3D123685A078D
:100B100006D51949E0688A6822F4E05202438A60E7
:100B20001B0707D5144A2169936823F4604343EAFD
:100B3000C1039360FFF756FF0F4A104C92681049AB
:100B4000C2F303120346A25C0E48D34000680B6058
:100B500000F00EFC0020BDE8F0819801B1D489E7D7
:100B600001207047044B1B689E03AAD482E7032030
:100B700081E700BF003C02400038024000A40008AA
:100B80000000002008000020044B05499B68054A2E
:100B90000868C3F38223D35CD84070470038024012
:100BA00000000020F8A30008044B05499B68054A93
:100BB0000868C3F34233D35CD84070470038024022
:100BC00000000020F8A30008F0B5036813F0050F3B
:100BD00083B004460BD19D0742D41B0702D40020EA
:100BE00003B0F0BD484B227CC3F8E021F7E7474B48
:100BF000474E00229A6600F005FC054604E000F02E
:100C000001FC431B022B28D833681B01F7D4D4E91D
:100C100001131B0743EA81133C4AC6F884300123C1
:100C2000936600F0EFFB3A4E054604E000F0EAFB65
:100C3000431B022B11D833681F01F7D52368CAE77D
:100C400000F0E0FB41F2883706462B6F9A073CD450
:100C500000F0D8FB801BB842F7D9032003B0F0BDE9
:100C60002B4B2C4D002201921A6C42F080521A64D8
:100C70001B6C03F080530193019B2B6843F480733A
:100C80002B6000F0BFFB064604E000F0BBFB831BBB
:100C9000022BE2D82B68D805F7D51D4DE3682A6FE3
:100CA00012F4407203F4407112D08A4210D02B6FBC
:100CB000164A0121C2F8401E23F440730021C2F8F5
:100CC000401E2B672B6FD907BAD4E36803F4407139
:100CD000B1F5407F0CD00E498A6822F4F8128A6080
:100CE0000B4A116FC3F30B030B431367236874E7BD
:100CF0000748826823F0704121F4407122F4F81211
:100D00000A438260ECE700BF001047420000474200
:100D100000380240007000402DE9F04F00230C68BD
:100D2000DFF8C8A185B04FF0010B894602E001331E
:100D3000102B7DD00BFA03F202EA0408A243F6D18D
:100D4000D9F8041001F0030C5A0003250CF1FF360A
:100D50009540012E6FEA05056DD9BCF1030F40F0F7
:100D6000B48006680CFA02F235402A4311F4403F81
:100D70000260DCD000220392DAF8442042F4804280
:100D8000CAF84420DAF8442002F480420392039A1D
:100D900023F0030202F1804203F003060F2702F55D
:100DA0009C32B60007FA06FC4D4F9568B84225EA1A
:100DB0000C0515D007F58067B84274D0494FB8428A
:100DC00077D0DFF82CC1604579D0DFF828C16045C5
:100DD0000CBF4FF0040C4FF0070C0CFA06F635432D
:100DE0009560414A9268CE026FEA08053E4E54BFB4
:100DF0002A4048EA0202B260F2683B4E8F0254BFBA
:100E00002A4048EA0202F26072688E03364E54BFEE
:100E10002A4048EA020272603268C90303F1010302
:100E2000314954BF2A4048EA0202102B0A6081D19E
:100E300005B0BDE8F08F866806EA050ED9F80C60AB
:100E4000964046EA0E068660466826EA080EC1F31A
:100E500000169E4046EA0E064660C66806EA050E83
:100E6000D9F80860964046EA0E06BCF1020FC6604B
:100E70007FF477AFDE0800EB86060196376AD9F873
:100E80001060009703F0070E4FEA8E0E0F2706FA48
:100E90000EF607FA0EFE009F27EA0E0E019F46EAA5
:100EA0000E063E625DE74FF0010C0CFA06F6354384
:100EB00096E74FF0020C0CFA06F6354390E74FF038
:100EC000030C0CFA06F635438AE7C66806EA050EF7
:100ED000D9F80860964046EA0E06C66041E700BFB2
:100EE0000000024000080240003C0140003802407F
:100EF000000C02400010024002B9090481617047F1
:100F0000436901EA030221EA030141EA02418161E6
:100F1000704700BF38B5044600F074FA002C6BD05F
:100F200023680022022184F8351084F834201A68DE
:100F300022F0010205461A6005E000F063FA431B47
:100F4000052B37D823681A68D107F6D4D4E90120D5
:100F5000E16802430A43D4E90451A0692A430A43E1
:100F6000E1691D6802430A4331492940256A2A4341
:100F70000A43616A042924D01A605A6922F00702E0
:100F80001143D8B22B4A59611038A2FB0052120902
:100F900029496FF30903895CE1655F2888BF043341
:100FA0003F228A40A36500209A600123606584F88F
:100FB000353038BD03232022626584F83530184669
:100FC00038BDD4E90B512943114319605969A26A0C
:100FD00021F00701114341F00401002DD1D068B97F
:100FE000012A21D032F00202CBD1EA01C9D5402238
:100FF0000123626584F83530012038BDB0F5005F0B
:1010000004D0022AF3D9032AEFD0BAE7032AB8D8CA
:1010100001A050F822F000BFEF0F0008EB0F00080E
:10102000EF0F000829100008B5F1C07FA9D1DEE755
:101030003F8010F0ABAAAAAA10A4000870B490F8E0
:101040003440856D012C0AD090F835404FF0010CEA
:10105000644580F834C005D0002380F83430022085
:1010600070BC7047022680F835600468002646652B
:10107000266826F48026266063608368402B0EBFB6
:10108000A260A160E260C26D08BFE1603F239340AF
:10109000AB602368026C43F0160323601AB1236827
:1010A00043F008032360236843F00103002023601A
:1010B00070BC704790F83530022B03D08023436515
:1010C000012070470268052380F83530136823F04B
:1010D0000103002013607047F0B583B0674A876D45
:1010E000166800230193C36D3D6808229A402A4286
:1010F000044603D001680868400778D401229A406A
:101100002A4203D02168496908066AD404229A4019
:101110002A4203D02168096889075CD410229A40CA
:101120002A4203D021680868000741D420229A404F
:101130002A4214D021680868C00610D5BA6094F815
:101140003520052A63D00B6813F4802F0B687ED0FE
:10115000190340F18980E36B0BB120469847636D1A
:1011600023B3636DDA071AD522684549052384F84D
:1011700035301368A1FB061623F00103B60A13608D
:1011800002E01368DB0704D5019B0133B3420193EE
:10119000F7D90122002384F8352084F83430E36C39
:1011A00023B1204603B0BDE8F040184703B0F0BDBE
:1011B000BA600A6812F4802F0A6822D1D20503D4DB
:1011C0000A6822F008020A60226C002AAED020468B
:1011D0009047E36DAAE7BA60626D42F0040262656F
:1011E0009CE7BA60626D42F0020262658EE70868B1
:1011F00020F004000860BA60626D42F0010262658E
:101200007CE71103E0D5A26C002AE0D18EE70A68E2
:1012100022F016020A604A6922F080024A61226CBA
:101220003AB30A6822F008020A603F2202FA03F386
:10123000216DBB600122002384F8352084F834300E
:101240000029B3D0204603B0BDE8F040084713F4AE
:10125000807380D10A6822F010020A60012284F8AB
:10126000352084F8343076E7636C002B7FF475AF5B
:1012700075E7A26C002AD4D1D7E700BF0000002098
:10128000B5814E1B0749CA6803024FF6FF0003F4FD
:10129000E0630240134343F0BF6343F40033CB6089
:1012A000704700BF00ED00E01B4BDB68C3F3022377
:1012B00000B5C3F1070EBEF1040F03F1040C28BF03
:1012C0004FF0040EBCF1060F1CD9A3F1030C4FF034
:1012D000FF3303FA0CF322EA03024FF0FF3303FA61
:1012E0000EF321EA030303FA0CF313431B01002856
:1012F000DBB20ADB00F1604000F5614080F80033AA
:101300005DF804FB00229446E7E7044A00F00F0072
:10131000024413765DF804FB00ED00E0FCEC00E015
:10132000002807DB044A4109012300F01F00834025
:1013300042F82130704700BF00E100E00138B0F111
:10134000807F01D30120704710B44FF0E023074C99
:1013500058614FF0F00C84F823C00022072110469A
:101360009A615DF8044B1961704700BF00ED00E021
:1013700038B50E4A0E4B1278054618684FF47A734A
:10138000B3FBF2F3B0FBF3F0FFF7D8FF08B90F2D72
:1013900001D9012038BD0446024629464FF0FF30EE
:1013A000FFF782FF034B20461D6038BD040000207C
:1013B000000000200800002008B50B4B1A6842F41A
:1013C00000721A601A6842F480621A601A6842F465
:1013D00080721A600320FFF755FF0F20FFF7C8FF48
:1013E000FFF7F8F8002008BD003C0240034A044B18
:1013F00011681B780B441360704700BFF800002091
:1014000004000020014B1868704700BFF80000205E
:1014100038B50446FFF7F6FF631C054602D0044BBF
:101420001B781C44FFF7EEFF401BA042FAD338BDE7
:1014300004000020014BD3F8100A70470070FF1F12
:10144000014BD3F8140A70470070FF1F014BD3F80B
:10145000180A70470070FF1F90F83D30012B27D10C
:1014600003681449022280F83D20DA688B4242F07A
:101470000102DA6011D0B3F1804F0ED00E4A9342D0
:101480000BD002F58062934207D002F5806293424E
:1014900003D002F59A32934204D19A6802F007020F
:1014A000062A03D01A6842F001021A600020704731
:1014B00001207047000001400004004090F83C20EB
:1014C000012A6ED00346026830B40120022483F85A
:1014D0003C0083F83D40946824F47F4424F0770472
:1014E00094600C68602C76D011D8402C5BD02ED83C
:1014F000202C04D000F2888034F010011FD19168B4
:1015000021F07001214341F00701916016E0B4F52C
:10151000805F13D0B4F5005F33D0702C0FD1D1E9C8
:10152000015094682843CD6824F47F4140EA0520A7
:1015300008439060916841F077019160002001219B
:10154000002283F83D1083F83C2030BC7047502CBB
:10155000F5D14868CC68116A21F00A010843116A84
:1015600021F001011162916921F0F00141EA0411B9
:1015700091611062916821F0700141F05701916012
:10158000DCE7D1E9015094682843CD6824F47F4119
:1015900040EA052008439060916841F480419160E1
:1015A000CCE7022070474868CC68116A21F00A0134
:1015B0000843116A21F001011162916921F0F001E3
:1015C00041EA041191611062916821F0700141F0CB
:1015D00047019160B2E74868CC68116A21F0A00128
:1015E00041EA0011106A20F010001062906920F4A6
:1015F000704040EA043090611162916821F07001FE
:1016000041F06701916099E7302C3FF478AF96E79D
:10161000704700BF704700BF704700BF704700BFF2
:10162000036870B5DE681D69A907044601D5B207D5
:1016300051D4690701D572073AD42B0701D5300779
:1016400024D4EA0601D5F30610D4E80701D5F10742
:1016500057D42A0601D533065BD4680601D5710636
:101660005FD4AA0601D5B30642D470BD23686FF0DB
:1016700010021A6108222277DB6913F4407F2046AA
:1016800063D0FFF7C7FF00232377DEE723686FF0FF
:1016900008021A6104222277DB699907204651D19A
:1016A000FFF7B6FF2046FFF7B7FF00232377C8E711
:1016B00023686FF004021A61022222779B6913F4F7
:1016C000407F20463BD1FFF7A3FF2046FFF7A4FF52
:1016D00000232377B1E76FF002021A61012202773B
:1016E0009B699B0725D0FFF795FF00232377A0E791
:1016F00023686FF0200220461A61BDE8704000F0B8
:1017000001B923686FF001021A61204607F0A4FEB8
:101710009FE723686FF080021A61204600F0F4F81A
:101720009BE723686FF040021A612046FFF776FFBF
:1017300097E7FFF76DFF2046FFF76EFFD5E7FFF74E
:1017400069FFC5E7FFF766FFAFE7FFF761FF2046D8
:10175000FFF762FF97E700BF354A0368904210B475
:1017600040D0B0F1804F20D0A2F57C4290421CD0F6
:1017700002F58062904218D002F58062904245D016
:101780002C4A904215D002F58062904211D002F5A9
:10179000806290420DD00A688C68496923F080030A
:1017A0000B430360C462826210E04A6823F0700356
:1017B0001343CC684A6923F44073234323F0800326
:1017C0008C6813430A680360C46282620123436128
:1017D0000369DB0703D5036923F0010303615DF8A7
:1017E000044B70474C68CA6823F07003234323F40A
:1017F000407313434A6923F08003134303608B68EB
:10180000C3620B6883620B690363DFE74C68CA68D5
:1018100023F07003234323F4407313434A6923F0F6
:101820008003134303608B68C3620B688362CDE758
:10183000000001400040014050B310B590F83D3029
:10184000044603F0FF02F3B12146022384F83D3041
:1018500051F8040BFFF780FF012384F8463084F829
:101860003E3084F83F3084F8403084F8413084F8CA
:10187000423084F8433084F8443084F8453084F8AA
:101880003D30002010BD80F83C2003F023FBDBE757
:101890000120704790F83C20012A2FD003460268AF
:1018A000022030B483F83D0050680D68946820F041
:1018B0007000284350601248824212D0B2F1804F2B
:1018C0000FD0A0F57C4082420BD000F580608242B0
:1018D00007D000F58060824203D000F59A30824242
:1018E00004D1496824F080040C4394600020012254
:1018F00083F83D2083F83C0030BC704702207047DD
:1019000000000140704700BF704700BF02681169C6
:1019100038B50446C068A36821F4405101432069EA
:10192000116103436069D1680343E06921F4164102
:1019300021F00C0103430B43D3605369A069234991
:1019400023F4407303438A42536105D0204B9A42EB
:1019500002D0FFF719F901E0FFF726F9E269192132
:10196000B2F5004FD4E90053A0FB010113D09A0057
:101970009B0FFEF76DFC174AA2FB00135B09642165
:1019800001FB130000013230A2FB00201B0103EB1E
:101990005013AB6038BDDA184FF000035B41FEF71F
:1019A00057FC0C4AA2FB00314909642303FB1103D5
:1019B000DB003233A2FB0323C3F342121B0902EB09
:1019C000011203F4F8731344AB6038BD00100140FA
:1019D000001401401F85EB5170B310B590F84130F1
:1019E000044603F0FF0213B32268242384F8413035
:1019F000D36823F400532046D360FFF787FF2368A2
:101A0000196921F490411961596921F02A0159613C
:101A1000D96800224FF0200C41F40051D960626473
:101A200084F841C084F842C01046626310BD80F85B
:101A30004020FEF75DFDD7E7012070470C490D4AB5
:101A40000B6810B50C4C121B2BB11844904207D8F0
:101A50000860184610BD094B0B6018449042F7D936
:101A600007F014FF0C2303604FF0FF33184610BD3E
:101A7000FC0000200000012000100000282A0020A7
:101A8000224B30B4040103EB00101C59037A01F01F
:101A90007F0083421FD90332C9094FEA920223D043
:101AA000A3681B4D616A1B0658BF52002B8858BFA4
:101AB00092B213441944B1F5A07F0CD89BB23F30C9
:101AC00004EB80042B80C3F5A07343EA02436360F8
:101AD000012030BC70474FF0E023D3F8F03DDA0727
:101AE00000D500BE0020F4E7C2F30D0213445B00F2
:101AF000626A0F339BB29A42EAD2054A12881A44AC
:101B0000B2F5A07FE7DC6362E2E700BF18A400083B
:101B10000201002010B591F802C01B4C8B88000117
:101B20000CF07F02245819484FEA420E0EEBDC1EDF
:101B300000EB0E1EC3F30A03C878AEF80A308979A9
:101B40008EF80C1000F0030143EA8143013918BFFD
:101B5000012143EA01735FEADC1C43F400430CD12A
:101B600002F158014901103263500123D4F81C18C6
:101B700093400B43C4F81C3810BD02F148014901E1
:101B800043EA8253F0E700BF18A4000808010020D0
:101B90000001334B01F07F0CC9091B5810B460469B
:101BA0004FEA4C1C2DD103F5306130B90B685DF85C
:101BB000044B43EA42520A607047614408680028B7
:101BC000F4DAD3F8040840F40070C3F80408586944
:101BD0000006FCD5234C0868002A0CBF4FF0804259
:101BE000224602430A608A689207FCD502228A6074
:101BF000D3F804285DF8044B42F48062C3F804284B
:101C0000704703F5106190B9002A0C680CBF4FF0C3
:101C100000624FF0026222430A60800140F020001F
:101C200018611A699406FCD45DF8044B704761444E
:101C30000C68002CE8DA0C6844F000640C608C68D6
:101C40006406FCD5074C002A0A6808BF4FF08044A0
:101C500022430A608A689207FCD502228A60DCE788
:101C600018A400080000204070B500013C4DBDF8EC
:101C700010402D5861B93B483B4E00EB021044899F
:101C800036F81200844228BF0446001B26F81200D2
:101C9000012A4FEAC3434FEA411032D005F5306CB8
:101CA0000CEB000EDEF8102002F06042CEF810209F
:101CB000DEF8102013432343CEF810305CF80030D8
:101CC00043F004434CF800305CF8003003F4402348
:101CD000B3F5802F00D070BD224B03EB41131B7B6B
:101CE000012BF8D1D5F808285CF8003012F4807F79
:101CF0000CBF4FF000524FF0805213434CF80030AD
:101D000070BD05F51062161823433361135843F074
:101D100004431350135803F44023B3F5802F09D024
:101D2000002CD8D0D5F8342801238B401343C5F8B4
:101D3000343870BD0B4B03EB41131B7F012BEFD1EC
:101D4000D5F8083813F4807F13580CBF4FF00056B5
:101D50004FF0805633431350002CBCD0E2E700BF55
:101D600018A400080801002004010020604B61490C
:101D700000011B581A6C6FF30F028A420FD05E49A4
:101D80008A420CD001F580318A4208D04FF0E0231E
:101D9000D3F8F03DDB0740F1948000BE7047D3F8E4
:101DA000042842F00202C3F80428DA6842F0400234
:101DB000DA609A6B42F480329A631A6942F0010247
:101DC0001A611A69D007FCD41A69002AFCDA4B4957
:101DD000DA6809684A4822F4705242F4A0528142FB
:101DE000DA6022D2474A91426CD8474A91426CD27B
:101DF000464A91426CD8A2F5DB12A2F5BA52914242
:101E000069D8A2F5B712A2F55872914266D8404A35
:101E1000914266D23F4A914266D23F4A914234BFD4
:101E20004FF470514FF4605101E04FF4C051DA6843
:101E300022F470520A43DA60D3F8002842F0030219
:101E4000C3F80028D3F8002E22F00F02C3F8002EAA
:101E5000DA6842F00702DA60DA6822F0C04242F043
:101E60008042DA601A6822F0D00242F0C0021A60A2
:101E7000D3F800284FF4846042F00402C3F800282D
:101E800018611A699106FCD410221A611A69D206E7
:101E9000FCD458695A69214902435A6158685A6802
:101EA00002435A6099619A6842F080029A609A6887
:101EB00042F001029A60D3F8042822F00202C3F82B
:101EC000042870474FF4E051B1E74FF40051AEE7FA
:101ED0004FF41051ABE74FF42051A8E74FF43051C5
:101EE000A5E74FF44051A2E74FF450519FE700BFE0
:101EF00018A400080000544F0000315500000020D5
:101F00000048E801DF9DA30100366E013FA44C01AB
:101F1000807306010024F400C0E1E400143800805E
:101F2000084B03EB001393F90430002B08DB064940
:101F30005809012203F01F0302FA03F341F820308D
:101F4000704700BF18A4000800E100E00A4B03EB53
:101F5000001393F90430002B0DDB5A0907480121C7
:101F6000203203F01F0301FA03F340F82230BFF3DD
:101F70004F8FBFF36F8F704718A4000800E100E097
:101F80000301114A10B5D458104AD4F8003823F48C
:101F9000FE6343EA01139FED0A7B82B0C4F8003868
:101FA0000B4C00210123009182ED047B11836180A1
:101FB0001A46FFF759FE02B010BD00BFAFF3008014
:101FC000000000000000000018A400080801002024
:101FD00004010020084B094A000111701B5831B15F
:101FE00008225A619A6942F008029A6170479A6918
:101FF00022F008029A61704718A40008000100202E
:1020000070B58A880C46C2F30A0289780646FFF743
:1020100037FD054640B94FF0E023D3F8F03DDB072C
:1020200000D500BE284670BD30462146FFF772FD40
:10203000284670BD234B020103EB00109B5890F81B
:1020400008C04FF00112BCF1010F30B5C3F81C28D5
:1020500023D91D4801214FF0000E03EB411201313D
:10206000D2F8005B002DCCB205DAD2F8005B45F067
:102070009045C2F8005BD2F80059A0F82AE0002D84
:1020800005DAD2F8005945F09045C2F80059A44548
:10209000A0F83AE000F12000DFD80C484FEA4C0CE1
:1020A0000CF12F0210244FF484615A6204801961EC
:1020B0001A699106FCD410221A611A69D206FCD45E
:1020C00030BD00BF18A40008080100200201002054
:1020D00070B58E4601F07F01194E4FEA410C0CEBB2
:1020E000DE1C1C4606EB0C134FEA0C1C82B046F8B3
:1020F0000C2000224FEADE1E1C815A60A9B15A89C9
:10210000B4FBF2F302FB134292B205469BB24AB112
:1021100001339BB2284600947246FFF7A5FD0120CB
:1021200002B070BD002CF5D1F2E7064B0094724668
:1021300023F81E400123FFF797FD012002B070BD78
:1021400008010020040100200122FFF721BD00BF8B
:10215000114B000101F07F021B58C90903EB421328
:102160000CD1D3F8002B22F40012C3F8002BD3F8C3
:10217000002B42F08052C3F8002B7047D3F800299F
:1021800022F40012C3F80029D3F8002942F080524B
:10219000C3F80029704700BF18A400082DE9F04FCC
:1021A000A34F4FEA001A89B057F80A40A36966693D
:1021B00006EA030818F4805F814607EB0012A34685
:1021C00040F0E48118F4005F21D04FF400536361C4
:1021D000D4F808388DF81490C3F3410213F0060FB9
:1021E0001CBF023AB2FA82F24FF0000314BF520948
:1021F0000222012105A8CDF816308DF81510ADF892
:102200001E30CDF81A308DF8182002F053FA18F469
:10221000006F40F09081B8F1000FC0F2A38118F078
:10222000040F04D06568680700F13F82656018F00C
:10223000080F1BD07F4B1A7808236361D4F8083845
:10224000C3F30D23002A00F097800022CDF816205A
:10225000CDF81A200121069305A803238DF81490C8
:10226000ADF81E208DF8153002F024FA18F0100F8A
:1022700037D0A369CDF8088023F01003A3616E4B1B
:10228000226A02F00F05C2F30A16C2F34342013A72
:10229000052A69D8DFE802F00A463011680304F520
:1022A0008054664922680A6022684A60DBF814207C
:1022B000D0060ED557F80A40E2E704EB4514D4F8EF
:1022C000102B42F0C042C4F8102BDBF81420D006CB
:1022D000F0D4DBF81830DDF8088043F01003CBF8B9
:1022E000183018F4002F08F4802140F0AD80002948
:1022F00047D109B0BDE8F08F002DD7D1002ED5D140
:10230000216C4F4A9142D1D9D4F8082B48F22001D0
:102310000A42CBD012F0200F14BF21220122C4F8B0
:10232000082BC3E703EB45124FEA45185068002815
:1023300000F08B81324604F5805100F02FFD3E4BBA
:1023400003EB08014A89B242B0D9A0440A89D8F8FF
:10235000100B121A92B20A81002DA7D139490888B0
:102360000D80121A1A81A1E74FF0E022D2F8F02D69
:10237000D4079BD500BE99E7A26922F00802A261AA
:1023800063E707EB0A0357F80AA093F808B0BBF11C
:10239000000FAED0284FCDF808900AF510650AF569
:1023A00080560024DAF81838E340D90734D5AB68F2
:1023B000DA0725D50123AB6054B9224B5B883BB1CA
:1023C0000093012302981A462146FFF74DFC17E0BF
:1023D0004FF00003ADF81A300023CDF81630029B01
:1023E0008DF814304FF007038DF815303B8B0793B1
:1023F000012164F07F0305A88DF8183002F05AF926
:10240000AB681B0608D5DAF83438012202FA04FC5E
:102410001CEA030F40F05C810134A34505F120055F
:1024200006F5805607F12007BCD109B0BDE8F08F52
:1024300018A40008000100200801002088010020E5
:102440000930544F0401002007EB0A0357F80A40F3
:102450001E7A002E3FF44DAF4FF0000BC04DCDE97A
:10246000021AD846DA46D4F818380AF11001CB40DF
:10247000D9073CD504EB4A134FEA4A1BD3F8081B93
:102480000A071ED50B0440F12181236CB54848F2A0
:102490000801834298BF082104EB0B00B24BC0F83F
:1024A000081B06218DF8151093E8030008ABADF862
:1024B00016808DF8149003E90300012105A802F0AD
:1024C000F9F804EB0B03D3F8081BC8070FD501225A
:1024D000C3F8082BBAF1000F1BD1A44B1B88C3B162
:1024E00000935146134648465246FFF7BDFB0AF19A
:1024F000010AB24505F12005B5D1DDE9021A00292E
:102500003FF4F7AE07EB0A0357F80AA093F808B0B8
:1025100040E72B8907930121072305A8CDF81680F2
:10252000ADF81A808DF814908DF818A08DF815303C
:1025300002F0C0F8DBE74FF4006363610023ADF8FD
:102540001E30CDF81630CDF81A300121042305A82D
:102550008DF814908DF8153002F0ACF8B8F1000F3A
:10256000BFF65DAE4FF0004363610023ADF81E304F
:10257000CDF81630CDF81A300121052305A88DF8C5
:1025800014908DF8153002F095F848E64FF480531A
:10259000157A636180227248002107F097F9744A26
:1025A00000231370D4F8002822F4FE62C4F8002837
:1025B000D5B104EB43110133D1F8002BAB4242F00B
:1025C0000062C1F8002BF4D1002304EB4312013365
:1025D000D2F80019002905DAD2F8001941F090412B
:1025E000C2F80019AB42F0D14FF484632361236930
:1025F0009B06FCD4102323612369DE06FCD46D0006
:1026000009235C4A5C484FF001112F35C4F81C18AF
:10261000C4F81438C4F810386562A262D4F80039DE
:102620004F4A23F00303C4F80039D4F8103B43F0B9
:10263000C043C4F8103BA369402143F440235183B5
:10264000A361102351810380BCE5B1084A1E53F8F1
:1026500008E092B2002900F0A38001320EEB820064
:1026600004F5805C7246DCF8001042F8041B8242DC
:10267000F9D116F00302F1B212D004F5805C89079B
:10268000DCF800C080F800C044BF4FEA1C21417054
:10269000032A04BF4FEA1C4C80F802C053F808E03C
:1026A0000EEB060243F808204AE60023ADF81E3080
:1026B000CDF81630CDF81A300121022305A88DF887
:1026C00014908DF8153001F0F5FFAFE50821E3E631
:1026D0002B69C3F3C949B9F1000F54D0CDF80CA050
:1026E0004FF00008E24606E0314600F0EDFA08F14E
:1026F0000108C14544D02969204AAB6902EA830335
:102700007A8B89B28A4228BF0A469A4238D87869B9
:102710000028E9D19008431E39699BB2002841D0B6
:10272000013301EB830308469C4650F8043B3360B9
:102730006045FAD1634612F0030E5FFA82FC0BD0BB
:102740001CF0020F187806D0BEF1030F188804BFE2
:102750009B7840EA0340306011443961C7E700BF0D
:10276000080100200930544F880100200401002096
:10277000000100203001100002010020FCFF0300D6
:10278000D446DDF80CA02B69C3F31203002B7FF4B1
:1027900043AEDAF8343823EA0C03CAF834383BE69F
:1027A000704666E70B46C6E72DE9F04782B006465D
:1027B000BDF828C0B6F804E09DF82C00A3EB0C058A
:1027C000ADB263453CBF05EB4E05ADB20F46002DE3
:1027D0003BD0AE453DD3954228BF1546E64505D8CA
:1027E000ACEB0E0C1FFA8CFCE645F9D9F288D6F852
:1027F0000080AEEB0C03A5EB0E0EC2F30E0A9BB2EB
:10280000E6441EFB0AFE13FB0AF9012852461FFA92
:102810008EF40AFB0C811FFA89F925D19D422ED82E
:1028200015FB0AF39AB2C3F38D03581E80B2002B36
:1028300000F08180013001EB800051F8043B3B60E7
:102840008142FAD112F003026CD1284602B0BDE8F1
:10285000F0879E4594BFA3EB0E0373441FFA83FCDD
:10286000A6F80AC07546B6E79D424DD805FB02F2B0
:10287000384606F0DDFF284602B0BDE8F08729F0B3
:1028800003039A089EB2531E9BB242B1013301EB7F
:1028900083000B4653F8042B3A608342FAD119F0B7
:1028A00003091DD03144C9F10406B6B2A64228BFBF
:1028B00026460023A4EB060E4A4601A801931FFA00
:1028C0008EF406F0B5FF01AB5FFA86FA03EB090060
:1028D00026B14146524606F0ABFFD044019B3B6017
:1028E000002CB2D0A1084B1EE2B29BB229B3013337
:1028F00008EB830158F8043B3B604145FAD112F0E4
:102900000302A2D000230FE04A46384606F090FFAB
:102910003168224607EB090006F08AFF284602B01C
:10292000BDE8F0870023014601A8019306F080FF6F
:10293000019B3B6089E7084684E74146E2E700BF28
:102940002DE9F04F0446008966899C4683B2E07900
:10295000C0090F4685B0A188B6B20DD1B34236BFCB
:10296000C6EB4100981BC01880B288426FD3002587
:10297000284605B0BDE8F08F8A424AD3BCF1000F6B
:1029800040F08C80E388521AC3F30E0303FB0277F6
:102990000D46002DECD005EB06081FFA88F88E4294
:1029A000304603D3401A80B28842FBD2B4F806E026
:1029B0002368A1EB000BA5EB0109CEF30E028144C5
:1029C0001FFA8BFB19FB02F91BFB02FABCF1010F8A
:1029D00096461FFA89F902FB00301FFA8AFA3DD0A9
:1029E000AB4564D3394602FB05F206F021FFA1880E
:1029F00046454FEA410002D8B8EB410F03DBA8EB94
:102A000000001FFA80F82846A4F8088005B0BDE849
:102A1000F08FB34236BFC6EB41059D1BED18ADB23A
:102A20004800154485423BDB06EB01081FFA88F895
:102A3000A8EB02039BB29E4201D898427EDC1B1A8F
:102A40009EB202EB06081FFA88F81546A7E70D1A92
:102A5000ADB2954228BF15461E469AE7AB4532D324
:102A600012FB05F2C2F38D0C0CF1FF3392B29BB254
:102A7000BCF1000F7DD0013300EB830C3B6840F8C4
:102A8000043B6045FAD112F00302B1D03B680393D6
:102A900003A9604606F0CCFEA188A9E70D4678E7B9
:102AA00003EB02081FFA88F81E46154677E75246E0
:102AB000394606F0BDFE07EB0A0120684A4606F0DB
:102AC000B7FEA18894E72AF0030E4FEA9E014A1E42
:102AD0001FFA8EFE92B241B1013200EB820C024627
:102AE000396842F8041B6245FAD11AF0030220D07B
:102AF000C2F1040B1FFA8BFB3B680393CB4503A980
:102B0000704428BFCB46019206F092FE019A03ABB7
:102B1000A9EB0B0999181FFA89F923685FFA8BFA58
:102B2000BBF1000F05D01846524606F081FE034661
:102B30005344B9F1000F04D1A18859E71E46154648
:102B40002DE74FEA9900411E5FFA89F289B290B1F0
:102B5000013103EB8100396843F8041B8342FAD149
:102B600012F00302E8D03B68039303A906F060FE6D
:102B7000E2E7844687E71846F5E700BFB2F5004F65
:102B80009DF800C00ED8C3F30E0343EACC334FF0D8
:102B9000000CA0F80AC001608280C380A0F808C0C1
:102BA000012070470020704703894289808892B2D3
:102BB0009BB2934236BFC2EB40029B1A9B189BB25A
:102BC000984228BF184670470289438990B29BB249
:102BD000C01AB0FA80F04009704700BF03894289EB
:102BE000808892B29BB2934236BFC2EB40029B1ADE
:102BF0009B189BB2984286BFC01A80B200207047D3
:102C000038B5B0F808C0438982881FFA8CFC9BB2A3
:102C10009C4536BFC3EB4205ACEB03056544ADB242
:102C2000044608463DB3AA420BD294452CBFACEBF8
:102C3000020C94441FFA8CF39A42638103D89B1AC6
:102C40009BB29A42FBD9E2882168C2F30E0202FBD2
:102C5000031106F0EDFD6189A28889B24B1C9BB27D
:102C600099424FF0010009D9002302FA00F15B1AE2
:102C70009BB2638138BD638928469BB2B3EB420F98
:102C80004FEA4201F3DA638138BD00BF30B50389F2
:102C9000458983B0ADB20446009500259BB20195ED
:102CA000FFF782FD6289A18892B283189BB29A4293
:102CB0004FEA410202D8B3EB410F01DB9B1A9BB2F2
:102CC000638103B030BD00BF30B50389458983B04F
:102CD000ADB20446009501259BB20195FFF764FD56
:102CE0006289A18892B283189BB29A4206D901FAEE
:102CF00005F29B1A9BB2638103B030BDB3EB410F69
:102D00004FEA4102F5DA638103B030BD38B5058979
:102D1000038904464089A2889BB280B2834236BFB1
:102D2000C0EB42001B1A1B189BB29A42ADB202D8EC
:102D3000E079C00919D0954218D32B469B1A9BB253
:102D40009342FBD2E2882068C2F30E0202FB03002A
:102D500006F06EFD6B1C9BB29D42A28811D9002328
:102D600051005B1A9BB22381012038BDE2882068A4
:102D7000C2F30E0205FB020006F05AFD0135A288DF
:102D8000ABB2B3EB420F4FEA4201ECDBE9E700BF25
:102D900012B10023FFF7D4BD1046704712B10123D2
:102DA000FFF7CEBD10467047034600224281012046
:102DB0001A817047C279034661F3C7120120DA71A4
:102DC000704700BF70B5044601F04CF800B970BD03
:102DD00001F050F805460028F9D1E378002BF6D031
:102DE00004F110063046FFF7F9FE3F28EFD9E178ED
:102DF000284601F0BFFD0028E9D03046FFF7EEFE7F
:102E00003F28E17807D904F1A80228464023BDE80D
:102E1000704001F0CBBD2846BDE8704001F0B8BD60
:102E200008B5044B4FF4947202FB0030FFF7BCFE70
:102E300008BD00BFA40100204FF4947370B503FBDC
:102E400000F44FF6FF739A42074E28BF1A4604F16A
:102E5000100092B23044FFF719FF05463019FFF712
:102E6000B1FF284670BD00BF9401002038B54FF473
:102E7000947303FB00F4054D04F110002844FFF7A0
:102E800093FF2819BDE83840FFF79CBF940100204C
:102E90002DE9F041044600F0E5FF10B90020BDE83F
:102EA000F08100F0E7FF06460028F7D14FF4947355
:102EB000DFF8608003FB04F404F11C054544284658
:102EC000FFF772FE0028E9D008EB04073046B97816
:102ED00001F050FD0028E1D0E83444442846214662
:102EE0004022FFF7D3FEB978054678B10346224663
:102EF000304601F05BFD38B94FF0E023D3F8F03DE8
:102F0000DB07CBD500BEC9E72846C8E701F040FD86
:102F1000C4E700BF9401002070B50E4C4FF49473C9
:102F200003FB00444FF6FF739A4228BF1A4692B241
:102F300005462046FFF72CFF06462046FFF734FEE5
:102F40003F2801D8304670BD2846FFF7A1FF304624
:102F500070BD00BFB001002010B5134C82B04FF41B
:102F600094720021204606F0B1FC10490023009322
:102F7000FF220B704FF4E13008216271A060A17351
:102F8000012304F12801402204F11000FFF7F6FDAF
:102F900001230093402204F1680104F11C00FFF7B3
:102FA000EDFD02B010BD00BF940100209001002093
:102FB0000120704710B50F4C0F48237800220260A3
:102FC0000271DA0707D59B070BD5BDE810400B4807
:102FD0000121FFF7EFBE1030FFF7E6FE23789B07D5
:102FE000F3D40648FFF7E0FEBDE810400348012196
:102FF000FFF7E0BE9001002094010020B001002006
:10300000F0B54B79022B83B003D00025284603B0DE
:10301000F0BD8B79022BF8D1244FBB788BBB8B781A
:103020003B700B78CC180646617824294FF00905CF
:103030000BD1082A02D820E0AA4208D323781C44E6
:103040002B44617824299DB2F6D0052921D06378DC
:10305000042B12D163790A2B0FD1154B27780193DA
:10306000013300930223E11930461A4601F04EFC69
:1030700038B10E3517FA85F5ADB20C48FFF7A2FE50
:10308000C4E74FF0E023D3F8F03DDB07BDD500BE29
:10309000BBE72146304601F015FC0028F1D0A378AB
:1030A0007B7023781D44ADB21C44D0E7940100200E
:1030B0009601002038B5137803F06003202B10D15F
:1030C0009446284ABCF8043092F800E09E4508D1A6
:1030D0009CF80130203B032B03D8DFE803F00A16ED
:1030E0001E04002038BD01292FD0032931D0012032
:1030F00038BD01290BD00329F9D11B4B002BF6D089
:103100001A490020AFF30080F1E70129EFD1174AF7
:103110000723614600F0A2FDE9E7012915D0032944
:10312000E5D1BCF802401248147104F0010585F0A5
:103130000101FFF73FFE0F4B002BD8D0C4F3400234
:103140002946002005F0C4FFD1E7614600F06EFD7E
:10315000CDE7094B002BCAD0BCF802100020AFF31A
:103160000080C4E794010020000000009C010020C2
:10317000B0010020D1900008000000002DE9F047C8
:10318000364EF2780C46A242B17807461D463CD036
:10319000A14213D04FF0E023D3F8F03DDB0700D578
:1031A00000BE0020BDE8F0872D4B23B12D48FFF76E
:1031B0000BFD00284FD02948FFF704FEB378A34247
:1031C00002D00120BDE8F087274B13B10020AFF3F8
:1031D00000800020FFF75CFE0028F2D12348FFF7B3
:1031E000E3FC0028EDD1002DEBD015F03F05E8D130
:1031F000B178384601F0BEFB0028E2D0B1782B460A
:103200002A46384601F0D2FBDBE79AB206F1A80164
:1032100006F11000FFF7BCFD154B002BC4D07379ED
:10322000FF2BC1D0002DBFD006F1A70808EB050A7F
:10323000A8F1970902E0C245B6D0737918F8012FBA
:103240009A42F8D14846FFF7BFFC0028F3D17179C4
:10325000AFF30080EFE705F03DFFACE794010020FD
:10326000D5900008A401002000000000B00100205B
:103270000000000010B4134B9C689A6B83F82C106C
:1032800093F83C10A21A4FF0020C9A6283F830C0F7
:1032900021B983F83E1042F2050199874CB142B141
:1032A0001A7BD20908D093F82E105DF8044B01F078
:1032B000C5BB5DF8044B704793F82F105DF8044BC5
:1032C00001F0BCBBBC22002038B5164B164C05469D
:1032D00023B1607B05F082FF0346C0B1A16BA368F8
:1032E000124A5B1AB3F5005F28BF4FF4005394F8FD
:1032F0002F109BB2284601F059FB00B138BD4FF0AA
:10330000E023D3F8F03DDB07F8D500BE38BD42F22C
:103310000772A28784F83E3028460121BDE8384074
:10332000FFF7A8BFDD910008BC220020BC020020EE
:1033300030B5294CE28AA36887B0054622B152BA5B
:1033400092B2B3FBF2F292B2A06BD4F811101B1A36
:10335000B3F5005F28BF4FF40053009309BAB0FBE8
:10336000F2F302FB13021944607B1C4B05F018FFBB
:10337000011E1CDB94F82E4008D08BB2174A214660
:10338000284601F013FBF8B107B030BD072303A8AE
:10339000CDF80E10ADF812108DF80C508DF80D30E0
:1033A0008DF81040059101F085F907B030BD43F666
:1033B0000222002301212846A28784F83E3007B06C
:1033C000BDE83040FFF756BF4FF0E023D3F8F03DA3
:1033D000DB07D9D500BED7E7BC220020BC02002005
:1033E0008268C38A22B9181E18BF012040007047A6
:1033F000C17B28290FD02A2902D1017BC9090DD10F
:103400000BB9012070475BBA9BB29A422CBF0022D5
:10341000012250007047017BC909F1D10220704799
:10342000044880F83C1080F83D2080F83E300120B0
:10343000704700BFBC22002002484022002106F055
:1034400045BA00BFBC22002002484022002106F0FD
:103450003DBA00BFBC2200204B79082B01D00020D0
:1034600070478B79062BFAD1CB79502BF7D1162ADE
:1034700007D84FF0E023D3F8F03DD907EFD500BED1
:10348000EDE730B5184D8B7885F82D300B7883B08B
:10349000194405F12E03019305F12F030093022334
:1034A0001A46044601F032FA48B94FF0E023D3F847
:1034B000F03DDA0700D500BE002003B030BD002289
:1034C00085F8302095F82F101F2320462A4601F05A
:1034D0006DFA08B11720F0E74FF0E023D3F8F03D84
:1034E000DB07F7D500BEF5E7BC220020012901D09B
:1034F0000120704770B51378144603F07F02022A4A
:1035000082B005462FD003F06003202B0CD16378E6
:10351000FE2B0CD0FF2B07D163882BB9B4F806C063
:103520001FFA8CF3002B3BD0002002B070BD6388E3
:10353000002BF9D1E288012AF6D1394B8DF807200A
:10354000002B3BD0AFF300800028EDD0431E5FFA84
:1035500083FC01230DF10702214628468DF807C0A0
:1035600000F07CFB19E06278012ACCD16388002B43
:10357000DAD12C4EA38896F83020042ADBB237D05B
:1035800096F82E1099421BD096F82F409C4204D1F9
:103590001AB9214601F044FA70B3012002B070BD9F
:1035A000204A21462846C2E90D3382F83030A2F87D
:1035B0003CC082F83E3000F039FBEEE79C46C8E79D
:1035C000022AEAD1B26BB3689B1A0322B36286F86F
:1035D00030200D2306F1200201F0E8F90028DCD1AB
:1035E0004FF0E023D3F8F03DDB079DD500BE9BE70D
:1035F000194601F023FAD0E72146284601F03CFAAB
:103600000028CAD10024074A96F82F1086F83040C7
:103610001F23284601F0CAF90028BED1E0E700BF09
:1036200000000000BC2200202DE9F041A54C94F8D8
:103630003050012D8EB007461E462FD0032D08D0E6
:103640004DBB94F82F308B4241D001200EB0BDE825
:10365000F08194F82E308B42F7D10D2EF5D1E37B1B
:10366000282B00F04E822A2B00F04382964B23B188
:10367000607B04F10F01AFF30080002084F830007C
:10368000904A94F82F101F23384601F08FF9002834
:1036900049D094F83050022DD7D154E0E37BA26B8F
:1036A000282B48D02A2B00F08C80237B3244DB0966
:1036B000A2637AD0636B934242D94FF0E023D3F8F0
:1036C000F03DDA07E5D500BE94F83050E3E71F2E51
:1036D00058D17E4B22689A4254D17D4BE27BA6683A
:1036E000236263686362282A4FF00103C4E90D6511
:1036F000A56284F82C5084F8303000F09B802A2A90
:1037000000F00782002E00F0B180237BDB0940F03F
:10371000AD80B6F5005F00F2F1806E4AB3B201F001
:1037200045F90028B5D14FF0E023D3F8F03DDB0791
:1037300035D500BE33E0636B32449A42A26374D342
:10374000022384F8303094F82E10384601F094F9B2
:1037500000287FF47AAFA368A26B94F82E109342EE
:1037600002D9207BC0091CD19B1A0322A36284F8D2
:1037700030203846584A0D2301F018F900287FF40C
:1037800064AFD0E794F82E100423384684F8303024
:1037900001F054F994F82F10384601F04FF9002049
:1037A00054E7384601F04AF94FE7A38E494A607B57
:1037B00004F10F0105F018FD0028C0F29581A26BFD
:1037C00078E7E08A28B140BA80B2A368B3FBF0F38F
:1037D00098B20096D4F811103E4DB2FBF0F309BA3E
:1037E00000FB13221944607B2B4605F0F9FC0028EE
:1037F000C0F2978186422CD9361A002840F0A88161
:10380000002194F82F30CDF81610072205A807964E
:10381000ADF81A108DF814708DF815208DF8183049
:1038200000F048FF94F8305035E7FFF781FD94F839
:10383000305030E72046FFF7D3FD002840F081816B
:10384000002E3FF47DAF3846FFF772FD94F83050FC
:1038500021E7D4E90D2333449342A363BFF470AF4F
:103860003846FFF731FD94F8305014E7657B252A80
:1038700034D8DFE812F0320133003300F5003300B2
:1038800033003300330033003300330033003300A0
:1038900033003300330033003300D40033003300EF
:1038A00033003300330033003300B900AA00330083
:1038B0003300950033003300330033006F003300D2
:1038C000480000BFBC2200200000000055534243C6
:1038D00055534253BC020020DC22002094F83C30B7
:1038E00063B92846A94AAA49B3B205F07DFC051E72
:1038F00004DBEDB9A368002B3FF422AF0121384669
:10390000FFF7B8FCC5E604AA05A9284605F02EFC79
:10391000059BBDF81020002B00F02481002A00F048
:1039200021819A49013B1BBA12BAC1E9003208252C
:10393000A368002BE2D09D4228BF1D46934A94F80D
:103940002E106563ABB2384601F030F800287FF4E2
:10395000A0AEE8E6002305AE05930DF10E02C6E920
:103960000133284604A905F001FC049A002A00F05E
:10397000F980BDF80E30002B00F0F48012BA0692E8
:1039800002225BBA8DF81C200822ADF81E308DF89B
:10399000172096E807007D4B0C2583E80700C7E752
:1039A0007C4B002BA6D0227DE17C2846AFF3008023
:1039B00000289FD194F83C30002B9FD143F602227F
:1039C0000023A28784F83E3098E7734B002B91D0F8
:1039D000E17C2846C1F3400301F00102090905F02A
:1039E000D3FB002886D1E5E7059B6C4A03F400036E
:1039F00043F003030593002A00F0C580284605F034
:103A0000EDFB03469DF8162083F0010363F3C71214
:103A10008DF816205D4B059A1A60042588E74FF053
:103A200020335F4A05922846CDE90733CDE90A33B2
:103A300007A909930D930C9309AA0DAB1F2505AE99
:103A4000069505F049FB0FCEDFF840C1ACE80F004A
:103A50000FCEACE80F003368CCF80030242567E7C0
:103A600094F83C10B4F83D20DFF820C1DFF83CE1C9
:103A70004FF000034FF0000861F30303CDF814800A
:103A80008DF81630F0238DF814300A23CDF8188005
:103A9000CDF82080CDF81C80ADF82020ADF8248032
:103AA0008DF81B3005AE0FCEACE80F003368ACF8D4
:103AB0000030BEF1000F60D02846ACF110014FF489
:103AC0000052AFF30080051EA4F83C8084F83E80CD
:103AD000BFF60FAF657B666B03E7284605F036FB44
:103AE00000287FF407AF65E729463846FFF7C2FB99
:103AF00065E62C4B002B3FF4C0AD607BAFF300803C
:103B0000BBE5294B002B3FF4B8AD607BAFF30080E1
:103B1000B3E52046FFF764FC98B9002E7FF4A0AE11
:103B20000EE6A36B334443F60222A3630121002374
:103B30003846A28784F83E30FFF79CFB94F830505B
:103B4000A9E501463846FFF795FB94F83050A2E509
:103B5000A36B291813FA80F332462846A36305F0B5
:103B60009BFE4DE694F83C30002B7FF4C7AE43F645
:103B70000222A28784F83E30C0E6A4F83CE084F834
:103B80003EE01225D4E601233CE700BFBC02002042
:103B9000CB2200200000000089910008DD91000880
:103BA0000080020200000000000000000000000091
:103BB0001B4AB2F80CC0D18910B5ACEB01039BB223
:103BC000044692F90000402B28BF4023002882B011
:103BD00009DB8C4520D0134A0021204602B0BDE805
:103BE000104000F0E3BE8C450ED091680D48019363
:103BF0001A4605F01DFE0B4A019B8021204602B0AB
:103C0000BDE8104000F0D2BE80210022204602B064
:103C1000BDE8104000F0CABE00210A46DDE700BF43
:103C20003C230020FC220020704700BF10B40A4C47
:103C30000A46844608684968234603C3117800236E
:103C4000C943C4E9023360465DF8044B01F08001CA
:103C50001A4600F0ABBE00BF3C23002070B5174CE5
:103C60008C46064608684968A260A646AEE803008E
:103C70000021E181BCF80650AB4228BF2B46A3814E
:103C80003DB103B18AB13046FFF792FF68B1012020
:103C900070BD9CF80010C9432B462A4601F08001F4
:103CA000304600F083FE0028F1D14FF0E023D3F836
:103CB000F03DDB0700D500BE002070BD3C23002096
:103CC000034B0022C3E90022C3E902221A617047B4
:103CD0003C230020014B1861704700BF3C230020AB
:103CE0000346044A59680068134603C30023C2E927
:103CF000023370473C23002070B52B4C2278C90951
:103D0000B1EBD21F06461D4614D043B14FF0E0235D
:103D1000D3F8F03DDB0700D500BE002070BD214682
:103D2000FFF782FF2369002B32D022460321304661
:103D300098472DE094F90030A068002B05DB00289F
:103D4000EBD01A492A4605F073FDA268E3892A449C
:103D50002B44A260E2889BB29A42E38106D03F2DB9
:103D600004D93046FFF724FF90B9CFE7236923B188
:103D70000D4A02213046984760B121780023C9439B
:103D80001A4601F08001304600F010FE0028BDD038
:103D9000012070BD01463046FEF7D6F9802130463D
:103DA000FEF7D2F9F4E700BF3C230020FC220020FC
:103DB000002070472DE9F0411B4EDFF87880327803
:103DC0001A4F0024054623460DE03B6813EB4413CD
:103DD00021D0DB682846984732780134E4B2511C80
:103DE000A142234606DBA242A3EB0203EDD808EB77
:103DF0004313EEE70E4C2C220021204605F066FD11
:103E00004FF0FF33C4E90233C4E9063363606361F2
:103E10002361BDE8F0814FF0E023D3F8F03DDB07EC
:103E2000F7D500BEBDE8F08114240020182400203E
:103E30002024002028A40008044B1B7810B1184649
:103E4000FEF76EB81846FEF781B800BF1C000020D0
:103E5000704700BF704700BF0020704700207047C8
:103E600000207047024B5878003818BF0120704777
:103E700020240020024B1878C0F38000704700BF58
:103E8000202400202DE9F843274F3B78FF2B02D058
:103E90000120BDE8F88300212C2206462348244D4A
:103EA00005F014FD234B244800221A70FEF77CFF16
:103EB000224A234B2349116063B32846AFF30080A5
:103EC000214B2A7818600024DFF88090DFF8788092
:103ED00023460EE0D8F8003013EB441311D05B6892
:103EE0007BB198472A780134E4B2511CA1422346A1
:103EF00012DBA242EED89B1A09EB43135B68002B3E
:103F0000EFD14FF0E023D3F8F03DDB0700D500BE42
:103F10000020BEE72A78D6E730463E70FDF726FF40
:103F20003046FDF7FDFFB3E71C00002020240020F1
:103F3000142400201C240020100000205023002006
:103F4000000000000C0000201824002028A4000815
:103F50002DE9F04FDFF8A89299F80030FF2B8BB0D5
:103F600000F0E380A04CA14DDFF890A2DFF894B2FE
:103F700027683E46002056F8043B9847304607A97C
:103F8000FEF73EFE3B68064601209847002E00F0F3
:103F9000CC809DF81D30013B072B00F27B83DFE8CE
:103FA00003F0A7B1959D8E350A04089B002BDFD046
:103FB00009989847DCE79DF8201001F07F0005EB99
:103FC000400303EBD11393F8202022F0010283F881
:103FD000202093F8202022F0040283F820200028DB
:103FE00000F0A6801B7D9AF80020934280F0938019
:103FF0007F4A126812EB431300F090809E699DF88F
:104000002120099B9DF81C00B047B1E79BF80030C8
:10401000002B00F083809BF80030013BDBB28BF873
:1040200000309BF8003003F0FF00002BA0D16F4F51
:104030009DF81C803B7843F001033B7097F82030DB
:1040400060F3000387F8203097F8203060F3820394
:1040500087F8203097F8213060F3000387F821308B
:1040600097F8213060F3820387F82130FFF732FEA2
:104070009DF8203003F06002602A6CD0402A7CD08A
:1040800003F01F03012B00F0BF80022B00F08180A2
:10409000002B60D1202A00F0E781002A5BD19DF837
:1040A0002130092B57D8DFE813F0AE01A0015600EC
:1040B000BF0156009301690156005E01F2002B78A2
:1040C000D9077FF555AF05F001F851E7EB78DA072E
:1040D0007FF54EAF0898FFF7BDFE49E72B78D8076C
:1040E0007FF546AF2878C0F3C00004F0EDFF3FE74E
:1040F0009DF81C00FFF75EFEFFF7E2FD9DF8203003
:10410000AB7035E79DF81C00FFF754FEFFF7D8FDB4
:1041100004F0D8FF2CE7501C984211DA4FF0E0234E
:10412000D3F8F03DDC0700D500BE0BB0BDE8F08F42
:10413000099B9DF821209DF81C00FFF7DDFD17E786
:104140009B1A2C4A02EB431358E704F035FF024652
:10415000002840F080814FF0E023D3F8F03DDE07E7
:1041600000D500BE9DF81C000021FDF7EDFF9DF875
:104170001C008021FDF7E8FFFAE61F48FFF7AAFDC3
:10418000404608AA0121FFF713FE00287FF4F0AE95
:10419000E8E79DF8241001F07F06052EDBD87000BB
:1041A00007EB460303EBD113019014481B7D007805
:1041B000CE098342009659D3461C9E42C0F26681C6
:1041C0001B1A0C4800EB4316002A00F0638170694B
:1041D000FFF780FD7369404608AA0121984700282F
:1041E0007FF4C6AEBEE700BF50230020202400208D
:1041F0001824002028A40008B13D00081424002041
:104200001C0000201C2400209DF824300F2BA9D86E
:10421000AE4A3B4412781B79934232D3511C9942E7
:10422000A0DBAB4E9B1A06EB43167069FFF752FDFD
:10423000736908AA01214046984700287FF498AE88
:104240009DF8203013F060068CD19DF821300A3B98
:10425000012B87D8FFF73EFD9DF821300A2B00F097
:10426000F28108A94046FFF7E1FC81E69948006821
:1042700000EB4316002A00F00D81002E3FF472AFD0
:10428000A5E7944A166816EB4316CED16AE77B7809
:104290009DF822609E4200F04F817B78002B40F019
:1042A000BE817E70002E00F04581701EC0B204F009
:1042B00083FE0346002800F05F814278022A40F026
:1042C0005B81C1793878C1F340121201C1F38011CA
:1042D00042EA411220F0300002433A705A88CDF889
:1042E0000C809A1803F1090601923146019B8B421A
:1042F00040F2A4814A780B2A00F0AF810123042AFE
:1043000040F03A81019A0493521A92B202926F4A93
:104310000026127800961DE06E4B1B6813EB4618C2
:1043200000F02A81D8F81030029A03980591984736
:1043300008280599024606F1010303D90298904224
:1043400080F0FF80DEB2614B00961A78531C9E42CB
:1043500000F31281009B9642A3EB0202DCD35C4B7C
:1043600003EB4218DEE77B788DF81A3040460123D4
:104370000DF11A0208A9FFF771FCF9E5BDF822005A
:10438000030A013B020AC0B20E2B3FF6EBAE01A1BD
:1043900051F823F0A945000845440008E545000808
:1043A0006541000865410008C7450008454400080C
:1043B0006541000865410008654100086541000845
:1043C0006541000865410008654100089B450008FB
:1043D00008A8FFF785FC9DF822104046FDF7D0FDA8
:1043E0003B7843F002033B70C2E5BDF82230012B5D
:1043F0007FF4B8AE3B78404623F0080308A93B7031
:10440000FFF714FCB4E53B789A0802F00202C3F30C
:10441000401340461343ADF81A300DF11A0202233F
:1044200008A9FFF71BFCA3E5BDF82230012B7FF4A0
:1044300099AE3B78404643F0080308A93B70FFF76C
:10444000F5FB95E5022A3FF480AEFFF709FD024631
:1044500000283FF487AE5388404608A9FFF7FEFBCB
:1044600000287FF485AD7DE69DF824300F2B3FF6C4
:1044700079AE164A3B4412781B7993421DD2154AF5
:10448000166816EB43167FF4A2AE6BE6002A7FF4A3
:1044900069AE00269DF8212002F0FD03012B1BD000
:1044A000002A7FF458AE019B009A3B4413444046D7
:1044B00093F82030C3F34003ADE7511C9942FFF657
:1044C00051AE034E9B1A06EB431680E614240020DF
:1044D00028A4000818240020BDF82230B3B9012A0E
:1044E00099F8000000F08680FDF72EFE019B009AEF
:1044F0003B44134493F8202042F0020283F820202A
:1045000093F8202042F0010283F82020002E3FF48F
:104510002FAD7069FFF7DEFB736908AA01214046E1
:1045200098470020FFF7D6FB97F82130DF073FF5CB
:104530001FAD96E604F0C6FD404608A9FFF776FBDE
:1045400016E5049B012B00F09E80002B00F08A8072
:1045500091F80280002005E08CF804605FFA80FC8E
:104560009C457FD208EB000C57FA8CFC01309CF87C
:1045700004E0BEF1FF0FEFD04FF0E023D3F8F03DA1
:10458000DA0700D500BE4FF0E023D3F8F03DDB079B
:1045900000D500BE00237B70E4E5FFF75DFC02461A
:1045A00000287FF458AFDDE504F002FD0246002844
:1045B0003FF4D1AD4046122308A9FFF74FFB002876
:1045C0007FF4D6ACCEE5FFF749FC024600283FF465
:1045D000C9AD1378404608A9FFF740FB00287FF4D7
:1045E000C7ACBFE5BDF8241004F0EAFC0246002881
:1045F000EFD1B7E50293FDF7ABFD019A009B3A447A
:104600001A44029B92F8201063F3410182F82010B3
:1046100092F8201063F3000182F8201076E7002161
:104620004046FDF7D7FC4046FDF704FDBB780093FC
:104630004046FFF7BFFB009BBB7032E6DDF80C8005
:1046400004F03EFD78E708A9404601230DF11A0267
:104650008DF81A60FFF702FB8AE40A78CB781144E0
:104660004A784CE6334610480492029100F080FAF2
:104670000E4B049A02991B781144009A013393421D
:10468000BFF634AE78E7D8F810C00948844508BFB3
:1046900002235DE74FF0E023D3F8F03DDB077FF521
:1046A00067AC00BE64E400BF342400201424002062
:1046B000013000082DE9F0434378023B85B0804685
:1046C0000D46042B13D8DFE803F003486A733E005D
:1046D000764B1A7822F001021A701A78002122F023
:1046E00002021A7059701A7861F382021A70704BC4
:1046F0001E68BDB93446284654F8043B9847204606
:104700004146FEF703FB336804460120984784B115
:1047100098F8011098F800002A46FFF799FB05B0B9
:10472000BDE8F0834146301DFEF7F0FA0446002C48
:10473000EED14FF0E023D3F8F03DDB07EFD500BE1C
:1047400005B0BDE8F0835B4A13780133DBB2137028
:10475000574B1E68002DE5D1CCE7DFF86491564F2A
:1047600099F80020554E0024234612E0336813EBDD
:10477000441306D0DB6923B1D8F8041098F8000080
:10478000984799F800200134E4B2511CA142234615
:1047900017DB9442EAD39B1A07EB4313EAE7434B38
:1047A0001A78D607BBD51A7842F004021A709EE731
:1047B0003E4B1A78D407B2D51A7822F004021A7048
:1047C00095E73A4C237858072BD5237823F0040338
:1047D0002370374B1F680023ADF80E30CDF806303C
:1047E000CDF80A3098F800308DF8043005238DF8A4
:1047F0000530002D4BD13E46284656F8043B9847DD
:10480000304601A9FEF782FA3B6806460120984728
:10481000002E42D14FF0E023D3F8F03DD90700D568
:1048200000BEE378DA077FF57AAF214A98F80010E6
:1048300016688DF804100023CDF80630CDF80A3044
:10484000ADF80E300322D8F804308DF8052002931D
:10485000BDB93446284654F8043B9847204601A980
:10486000FEF754FA3368044601209847002C3FF4C1
:1048700060AF9DF805109DF804002A46FFF7E8FA9E
:104880004DE701A9301DFEF741FA0446EEE701A904
:10489000381DFEF73BFA0646BAE79DF805109DF86D
:1048A00004002A46FFF7D4FABBE700BF202400200B
:1048B000502300201C24002028A4000818240020D5
:1048C0001424002038B58B780E4A03F07F03052BA3
:1048D000157808D94FF0E023D3F8F03DDB0700D579
:1048E00000BE002038BD084B0C460846997800F001
:1048F0000DF90028EED021462846BDE83840FDF7E6
:104900007FBB00BF1C000020202400202DE9F047C1
:10491000DDE908895AB306460C461F4615464FF096
:10492000000A15E094F803C00CF0030CBC4514D148
:10493000FFF7C8FF88B1A378DA0914BF89F80030FF
:1049400088F8003023780AF1010AAA451C440ED0E9
:104950006378052B21463046E4D04FF0E023D3F8AE
:10496000F03DDB0700D500BE0020BDE8F087012048
:10497000BDE8F087CB09054801F07F01203303EB48
:1049800041031844002100F093B800BF2024002008
:10499000CB09054801F07F01203303EB41031844A4
:1049A000002100F0A1B800BF2024002010B51A4C4F
:1049B0001A4801F07F0E04EB4E0404EBD11400788A
:1049C00094F820C01CF0010F08D04FF0E023D3F87A
:1049D000F03DDA0700D500BE002010BD94F820C0DD
:1049E0004CF0010C84F820C0FDF772FB0028F4D1D4
:1049F00094F8202060F3000284F8202094F820200E
:104A00004FF0E02160F3820284F82020D1F8F03DDD
:104A1000DB07E1D5DFE700BF202400201C000020D9
:104A2000054B01F07F0203EB420303EBD11191F838
:104A3000200000F0010070472024002010B50C4B2E
:104A400018780C46FDF780FB0A4B04F07F0203EB5D
:104A5000420303EBD41191F8203043F0020381F8B4
:104A6000203091F8203043F0010381F8203010BD50
:104A70001C00002020240020054B01F07F0203EBE6
:104A8000420303EBD11191F82000C0F340007047BE
:104A90002024002008B50020FFF7F4F900B108BD7C
:104AA0004FF0E023D3F8F03DDB07F8D500BE08BD9A
:104AB0000378024613F0010013D11378C3F3800189
:104AC0005B070DD4137813F0010008D113785B074E
:104AD00006D4137843F0040301201370704708468E
:104AE00070470020704700BF02780346C2F3800081
:104AF000520700D470471A7812F0010204D11978D5
:104B000062F382011970704700207047C378828871
:104B100003F003000228C2F30A021FD0032803D0C7
:104B200001280AD000207047022914BF40234FF407
:104B30008063934209D301207047022940F2FF337A
:104B400008BF4FF480639342F6D24FF0E023D3F8CE
:104B5000F03DDB07E6D500BE00207047022902D0F9
:104B6000402AE8D9F1E7B2F5007FE4D0EDE700BFD5
:104B70000A44914205D3704791F800C061448A42CB
:104B800020D991F801C0BCF1050FF5D100B591F81D
:104B900002C00CF07F0E00EB4E0E4FEADC1C0EF84C
:104BA0000C3091F800C061448A4209D991F801C0E3
:104BB000BCF1050FEBD091F800C061448A42F5D8F2
:104BC0005DF804FB704700BF00B53B483B490160FE
:104BD0000122002385B04FF48031026180F830203B
:104BE000374A0376CDE90033CDE90233C0E901133A
:104BF00080F82030C36043610023C0E90A23062304
:104C0000C36100F087F900283BD19FED297B072382
:104C10002948029369468DED007B00F09BFB00283C
:104C200043D10522022324486946CDE9002300F040
:104C300091FBB8BB062203231F486946CDE9002338
:104C400000F088FB58BB072204231B486946CDE9C6
:104C5000002300F07FFBF8B91022052316486946AF
:104C6000CDE9002300F076FB98B911220623124803
:104C70006946CDE9002300F06DFB28B905B05DF869
:104C800004FBFBF745FBC0E7FBF742FB05B05DF813
:104C900004FBFBF73DFBE8E7FBF73AFBDCE7FBF740
:104CA00037FBD0E7FBF734FBC4E7FBF731FBB8E792
:104CB0000400000001000000B0240020002001409A
:104CC0000100000F70B5294B026888B000249A4299
:104CD000CDE90244CDE90444069401D008B070BD8A
:104CE00003F58C3300945A6C214E42F480725A645E
:104CF0005A6C02F480720092009A01941A6B42F08E
:104D000001021A631B6B03F001030193F0220323DA
:104D1000054602A91748CDE90223019BFBF7FCFFDA
:104D2000154A74624FF48063C6E9002433614FF47E
:104D300080524FF48043C6E9052330464FF4807318
:104D4000C6E90244C6E90734FCF7E4F858B9002282
:104D5000AE6311461220B563FCF7A6FA1220FCF7E9
:104D6000DFFA08B070BDFBF7D3FAF0E7002001408E
:104D70004C240020000002401064024000B522488C
:104D8000224987B07F2200238260FF22CDE90133D0
:104D9000CDE90333C0E90013C0E90323C0E90533BB
:104DA0000593009300F034FC50BB1748002100F03D
:104DB00073FD174A904218D01348002100F066FD99
:104DC00000231148ADF80430012201A9CDE90433D4
:104DD0008DF8063000F066FC78B90E4B0A48009357
:104DE0000122694600F0DCFC10B907B05DF804FB55
:104DF000FBF78EFA07B05DF804FBFBF789FAECE7E6
:104E0000FBF786FAD1E700BFF82400200028004015
:104E1000FECADABA0505129900B50F4A016887B0D3
:104E200000239142CDE90233059302D007B05DF82B
:104E300004FB02224FF4807301A801920493FBF754
:104E4000C3FE30B9054B0122C3F83C2E07B05DF814
:104E500004FBFBF75DFAF5E700280040000047423D
:104E600000B51A481A4A026042F2CF02002387B006
:104E700042606322CDE90233CDE90433CDE900334A
:104E8000C0E9023203618361FCF7D6FC98B94FF4A4
:104E900080530E48029302A9FCF710FB98B9002238
:104EA00000230A486946CDE90023FCF7F3FC28B942
:104EB00007B05DF804FBFBF72BFAE8E7FBF728FAED
:104EC00007B05DF804FBFBF723FAE8E7182500209C
:104ED000000C00400E4B02689A4200D0704700B5AB
:104EE00083B0002203F50B330192196C41F00801E5
:104EF00019641B6C03F00803019311463220019BD7
:104F0000FCF7D2F9322003B05DF804EBFCF708BAE5
:104F1000000C0040002800F09E8038B5056C044667
:104F20003DB1236CDB060CD5002384F83C30012016
:104F300038BDFFF7C7FE6564236C84F83C50DB0680
:104F4000F2D4236C474A23F4885323F0020343F03E
:104F5000020323645168236821F440315160516891
:104F60006068014351605A682069A16822F4807228
:104F70005A605A6842EA00225A605A68E06822F091
:104F800040725A605A680A435A609A68A16A22F4C9
:104F900000629A609A6802439A60334A91429A6822
:104FA00051D022F07062E06A9A609A681143996069
:104FB0009A6822F040529A609A6802439A609A680E
:104FC00022F002029A609A68217E42EA41029A60C7
:104FD00094F82020002A40D05A68616A42F40062A6
:104FE0005A605A6822F460425A605A68013942EAAB
:104FF00041325A60DA6AE16922F47002DA62DA6AEE
:10500000013942EA0152DA629A68616922F4007257
:105010009A609A6894F8300042EA40229A609A684E
:1050200022F480629A609A68002042EA81229A60A3
:105030006064236C23F0030343F001032364002323
:1050400084F83C3038BD22F070629A609A6822F091
:1050500040529A60B3E7012070475A6822F4006218
:105060005A60C7E7002301400100000F70B50546F4
:1050700090F83C0082B00023012801937BD02E6879
:105080001346012285F83C20B268D20714D4B268D6
:1050900042F00102B260394A1068394AA2FB00208E
:1050A000800C00EB40000190019A2AB1019C013C68
:1050B000019401980028F9D1B268D40503D5B268EB
:1050C00022F48072B260B268D00740D5286C20F418
:1050D000E06020F0010040F480702864726852059E
:1050E00005D52A6C22F4405242F480522A642A6C7C
:1050F000A86B12F480521CBF6A6C22F006026A642C
:10510000002285F83C200A461E49C1631E490164FD
:105110001E49C1646FF022013160716841F0806105
:105120007160B16841F48071B16006F14C01FBF728
:1051300085FF174B5B68DB0614D12B689A6812F069
:10514000405F0CD19A6842F080429A6007E02B6C75
:1051500043F010032B646B6C43F001036B6400207D
:1051600002B070BD0B4A2B689342F8D19A6812F0D6
:10517000405FF4D1E6E7022002B070BD00000020DD
:1051800083DE1B43E95200089D510008D1520008FC
:105190000023014000200140704700BF08B5806B2C
:1051A000FFF7FAFF08BD00BF704700BF704700BFA0
:1051B000036870B51D685E68AA07044601D5B0068D
:1051C0004DD4690701D5320617D4E90701D5720617
:1051D00004D4A90601D5720169D470BD1A68D0073C
:1051E000F7D5236C43F4803323642046FFF7DCFFBC
:1051F00023686FF001021A60EBE7226CD00603D43B
:10520000226C42F4005222649A6812F4401F1ED1AC
:105210009A6B12F4401F02D09A68510517D45A684D
:10522000520514D49A6812F0405F10D1227E72B9F0
:105230005A6822F080025A60236C23F4805323645E
:10524000236CD80503D4236C43F001032364204668
:1052500000F028F923686FF00C021A60B5E7226CA1
:10526000D10603D4226C42F4007222649A6812F0D0
:10527000405F14D1227E92B9DA6A12F4700F23D102
:105280005A6822F020025A60236C23F4807323644E
:10529000236CD80403D4236C43F001032364204619
:1052A00004F0EEF823686FF012021A6089E7626C6E
:1052B0006FF0200542F00202626420461D60FFF795
:1052C00075FF23681D6070BD9A685205E7D4D7E763
:1052D000806B08B540230364436C43F004034364CC
:1052E000FFF764FF08BD00BF836B1A6C12F0500F0C
:1052F00010B51A6C23D142F4007219681A648A68D6
:1053000012F0405F17D11A7EAAB9CA6A12F4700F60
:1053100002D08A6850050ED44A6822F020024A6002
:105320001A6C22F480721A641A6CD10403D41A6CB9
:1053300042F001021A64184604F0A2F810BDD20629
:1053400004D49B6BBDE81040DB6C18471846FFF790
:105350002DFF10BD70B590F83C3082B00246012B95
:105360004FF00000019000F09380012382F83C3060
:105370000D6813688C68092DA8B228D81E6905EB42
:10538000450E4FF0070C0CFA0EFC26EA0C061E61C7
:105390001E6904FA0EF434431C614C68062C04EBBD
:1053A00084012AD85C6B05394FF01F0C88400CFA39
:1053B00001F124EA01015963596B084358633649E6
:1053C0008B422BD0002082F83C0002B070BD00EB75
:1053D000400CDE68ACF11E0C4FF0070E04FA0CF422
:1053E0000EFA0CFC26EA0C06DE60DE683443DC6054
:1053F0004C68062C04EB8401D4D90C2C34D81C6BDB
:1054000023391F26884006FA01F124EA01011963B5
:10541000196B0843204918638B42D3D1122D30D029
:10542000A5F11003012BCDD81C494B68102D43F476
:1054300000034B60C6D11A4B01F146711B6801F5A0
:105440002E3101F28331A1FB03139B0C03EB830389
:105450005B000193019B002BB4D0019B013B0193A6
:10546000019B002BF9D1ADE7DC6A41391F2688404A
:1054700006FA01F124EA0101D962D96A0843D86227
:105480009DE7D1F8043343F48003C1F8043399E76E
:10549000022002B070BD00BF002001400023014087
:1054A00000000020704700BF036830B59C6A18698F
:1054B0001B68C0F30E00C1E90140C3F3054400209E
:1054C000C3F3062E64F3070003F07F0C6EF30F2086
:1054D000C3F306456CF31740C3F3805363F31F60B7
:1054E0000860DAB94FEA1E1303EB83030EF00F0EC8
:1054F0000EEB430E24094FEA1C1304EB840405F061
:105500000F0503EB83030CF00F0C05EB44050CEBCC
:10551000430C0D7081F801E081F802C0002030BD1D
:1055200003685B6810B50020C3F3423E6EF30700CA
:10553000C3F3042EC3F3074CC3F307246EF30F2009
:1055400003F03F0363F317406CF31F600860D2B9A8
:105550001A0902EB820203F00F0303EB42034FEA46
:105560001E1E8B704FEA1C130EEB8E0E04F00F0400
:1055700003EB83030CF00F0C04EB4E040CEB430C19
:105580004C7081F803C0002010BD00BF38B503681F
:10559000DA68520601D5002038BDDA6842F0800290
:1055A000DA600446FBF72EFF05462368DB685B06DE
:1055B000F1D4FBF727FF431BB3F57A7FF5D92368B6
:1055C00004226277DB68012038BD00BF38B503686C
:1055D000DA6822F08002DA609A68920601D500202B
:1055E00038BD0A4ADA600446FBF70CFF054623681B
:1055F000DB689B06F3D4FBF705FF431BB3F57A7F0B
:10560000F5D904236377012038BD00BF5F3F010057
:10561000002845D038B5437F044603F0FF024BB164
:10562000022223686277DA68D20607D501236377FE
:10563000002038BD0277FFF7EFFBF1E7CA215322C4
:10564000596220465A62FFF7A1FF236810B1FF227A
:105650005A6238BD99686268256921F4E00121F039
:1056600040019960616998682A430A430243E168EE
:105670009A6019611A69A16842EA01421A612046DA
:10568000FFF7A4FF23680028E1D11A6CA06922F477
:1056900080221A641A6CFF2102431A645962C5E71A
:1056A00001207047037F012B78D070B50E46012191
:1056B00002230177016843778B680546002A37D1BA
:1056C00013F0400C18BF96F803C033780CBF86F86F
:1056D00003C04FEA8C5C092B09D900200A3BDBB2DE
:1056E000092B00F10100F9D843EA0013DBB21C04D6
:1056F0007378092B09D900200A3BDBB2092B00F192
:105700000100F9D843EA0013DBB2B07809284FEA68
:10571000032308D90A38C0B2092802F10102F9D8D6
:1057200040EA0210C0B244EA0C041C4304430FE0F8
:105730007478327813F040034FEA042414BFF378EE
:10574000F37044EA0244B27818BF9B0514431C432B
:10575000CA234B6253234B622846FFF717FF28B139
:105760002A68FF21002351622B7770BD2B683069B6
:10577000F26804F07F3424F0FE441C60996821F440
:1057800080219960996802430A4328469A60FFF78E
:105790001DFF0028E4D101236B77E1E70220704769
:1057A00038B5037F012B6FD00546022301202877EF
:1057B0006B7791F800E0CB78487891F802C04FEA17
:1057C0004E3EAAB14EEA034444EA0C0444EA0024E3
:1057D0002B68CA215322596228465A62FFF7D6FE27
:1057E000002840D02A68FF21002351622B7738BD62
:1057F000C40646D520F010000A30C0B2092B48700C
:1058000098BF1C040DD900210A3BDBB2092B01F122
:105810000101F9D843EA0113DBB209284FEA034436
:1058200009D900230A38C0B2092803F10103F9D8C5
:1058300040EA0313D8B2BCF1090F4FEA00200CD99B
:10584000ACF10A0C5FFA8CFCBCF1090F02F1010209
:10585000F6D84CEA02125FFA82FC44EA0E040443D2
:1058600044EA0C04B4E72B6824F07F4424F0C0041D
:105870005C602846FFF7AAFE0028B3D101236B77AE
:10588000B0E7092BBFD8C8E7022038BD0368503302
:1058900043F82120704700BF0368503353F82100BC
:1058A000704700BF10B4084B084C00224FF48040F2
:1058B0000821C3E90042C3E90222C3E904205DF8DC
:1058C000044B9961704700BF60250020002C014007
:1058D000F0B52F4B02688BB000249A42CDE9044406
:1058E000CDE90644089401D00BB0F0BD03F5863332
:1058F00001945A6C274842F400625A645A6C02F4CC
:1059000000620192019A02941A6B42F004021A6337
:105910001A6B02F004020292029A03941A6B42F08C
:1059200008021A631B6B03F0080303930C254FF462
:1059300080720126032704A90223CDE90423CDE9BF
:105940000667039B0895FBF7E7F94FF480520223A3
:10595000CDE9042304A9002203230E480895CDE9CC
:105960000623FBF7D9F9022304A904220A48089563
:10597000CDE90423CDE90667FBF7CEF9224621469F
:105980003120FBF791FC3120FBF7CAFC0BB0F0BDD6
:10599000002C014000080240000C024008B50349F9
:1059A000034802F06FFB034B187008BDE42500208C
:1059B000DCA90008E825002010B5134C86B001A929
:1059C00000222046FFF770FD694600222046FFF7BF
:1059D000A7FD9DF802309DF801209DF804409DF838
:1059E00005109DF803001B0443EA425343EAC42315
:1059F0009DF8062043EA411343EA5203143043EA78
:105A0000406006B010BD00BFF824002084B010B480
:105A10000DF1080C8CE80E000B46049913430B4360
:105A2000DDE90541426823430B4307995DF8044BC8
:105A300022F4FD420B4322F07F021343436004B083
:105A400000207047D0F88000704700BF0B68C0F896
:105A500080300020704700BF0323036000207047A0
:105A6000006800F00300704714304058704700BFD2
:105A700010B4D1E900428B684462CC68826223434F
:105A8000D1E90441C26A234322F0F7020B431343D6
:105A9000C3625DF8044B0020704700BF00220F4B2B
:105AA0008260C2680E491B686FF30B02A1FB0313EF
:105AB00042F480625B0A41F28831C26001FB03F369
:105AC00043B1426B120603F1FF33F9D5C52383635B
:105AD000002070474FF00040704700BF00000020DA
